{
  "contractName": "JobListing",
  "abi": [
    {
      "inputs": [
        {
          "internalType": "address",
          "name": "_userContract",
          "type": "address"
        },
        {
          "internalType": "address",
          "name": "_paymentContract",
          "type": "address"
        }
      ],
      "payable": false,
      "stateMutability": "nonpayable",
      "type": "constructor"
    },
    {
      "anonymous": false,
      "inputs": [
        {
          "indexed": true,
          "internalType": "uint256",
          "name": "jobId",
          "type": "uint256"
        },
        {
          "indexed": true,
          "internalType": "uint256",
          "name": "freelancerId",
          "type": "uint256"
        }
      ],
      "name": "JobBidded",
      "type": "event"
    },
    {
      "anonymous": false,
      "inputs": [
        {
          "indexed": true,
          "internalType": "uint256",
          "name": "jobId",
          "type": "uint256"
        }
      ],
      "name": "JobCancelled",
      "type": "event"
    },
    {
      "anonymous": false,
      "inputs": [
        {
          "indexed": true,
          "internalType": "uint256",
          "name": "jobId",
          "type": "uint256"
        },
        {
          "indexed": true,
          "internalType": "uint256",
          "name": "freelancerId",
          "type": "uint256"
        }
      ],
      "name": "JobCompleted",
      "type": "event"
    },
    {
      "anonymous": false,
      "inputs": [
        {
          "indexed": true,
          "internalType": "uint256",
          "name": "jobId",
          "type": "uint256"
        },
        {
          "indexed": true,
          "internalType": "uint256",
          "name": "clientId",
          "type": "uint256"
        },
        {
          "indexed": false,
          "internalType": "string",
          "name": "description",
          "type": "string"
        },
        {
          "indexed": false,
          "internalType": "uint256",
          "name": "paymentAmount",
          "type": "uint256"
        }
      ],
      "name": "JobListed",
      "type": "event"
    },
    {
      "anonymous": false,
      "inputs": [
        {
          "indexed": true,
          "internalType": "uint256",
          "name": "jobId",
          "type": "uint256"
        },
        {
          "indexed": false,
          "internalType": "string",
          "name": "description",
          "type": "string"
        },
        {
          "indexed": false,
          "internalType": "uint256",
          "name": "paymentAmount",
          "type": "uint256"
        }
      ],
      "name": "JobUpdated",
      "type": "event"
    },
    {
      "constant": true,
      "inputs": [
        {
          "internalType": "uint256",
          "name": "",
          "type": "uint256"
        }
      ],
      "name": "jobs",
      "outputs": [
        {
          "internalType": "uint256",
          "name": "jobId",
          "type": "uint256"
        },
        {
          "internalType": "uint256",
          "name": "clientId",
          "type": "uint256"
        },
        {
          "internalType": "uint256",
          "name": "freelancerId",
          "type": "uint256"
        },
        {
          "internalType": "string",
          "name": "description",
          "type": "string"
        },
        {
          "internalType": "uint256",
          "name": "paymentAmount",
          "type": "uint256"
        },
        {
          "internalType": "enum JobListing.JobStatus",
          "name": "status",
          "type": "uint8"
        }
      ],
      "payable": false,
      "stateMutability": "view",
      "type": "function"
    },
    {
      "constant": true,
      "inputs": [],
      "name": "numJobs",
      "outputs": [
        {
          "internalType": "uint256",
          "name": "",
          "type": "uint256"
        }
      ],
      "payable": false,
      "stateMutability": "view",
      "type": "function"
    },
    {
      "constant": true,
      "inputs": [],
      "name": "paymentContract",
      "outputs": [
        {
          "internalType": "contract Payment",
          "name": "",
          "type": "address"
        }
      ],
      "payable": false,
      "stateMutability": "view",
      "type": "function"
    },
    {
      "constant": true,
      "inputs": [],
      "name": "userContract",
      "outputs": [
        {
          "internalType": "contract User",
          "name": "",
          "type": "address"
        }
      ],
      "payable": false,
      "stateMutability": "view",
      "type": "function"
    },
    {
      "constant": false,
      "inputs": [
        {
          "internalType": "uint256",
          "name": "clientId",
          "type": "uint256"
        },
        {
          "internalType": "string",
          "name": "description",
          "type": "string"
        },
        {
          "internalType": "uint256",
          "name": "paymentAmount",
          "type": "uint256"
        }
      ],
      "name": "listJob",
      "outputs": [],
      "payable": false,
      "stateMutability": "nonpayable",
      "type": "function"
    },
    {
      "constant": false,
      "inputs": [
        {
          "internalType": "uint256",
          "name": "jobId",
          "type": "uint256"
        },
        {
          "internalType": "string",
          "name": "description",
          "type": "string"
        },
        {
          "internalType": "uint256",
          "name": "paymentAmount",
          "type": "uint256"
        }
      ],
      "name": "updateJob",
      "outputs": [],
      "payable": false,
      "stateMutability": "nonpayable",
      "type": "function"
    },
    {
      "constant": false,
      "inputs": [
        {
          "internalType": "uint256",
          "name": "jobId",
          "type": "uint256"
        },
        {
          "internalType": "uint256",
          "name": "freelancerId",
          "type": "uint256"
        }
      ],
      "name": "bidJob",
      "outputs": [],
      "payable": false,
      "stateMutability": "nonpayable",
      "type": "function"
    },
    {
      "constant": false,
      "inputs": [
        {
          "internalType": "uint256",
          "name": "jobId",
          "type": "uint256"
        }
      ],
      "name": "completeJob",
      "outputs": [],
      "payable": false,
      "stateMutability": "nonpayable",
      "type": "function"
    },
    {
      "constant": false,
      "inputs": [
        {
          "internalType": "uint256",
          "name": "jobId",
          "type": "uint256"
        }
      ],
      "name": "cancelJob",
      "outputs": [],
      "payable": false,
      "stateMutability": "nonpayable",
      "type": "function"
    },
    {
      "constant": true,
      "inputs": [
        {
          "internalType": "uint256",
          "name": "jobId",
          "type": "uint256"
        }
      ],
      "name": "getJobDetails",
      "outputs": [
        {
          "internalType": "uint256",
          "name": "",
          "type": "uint256"
        },
        {
          "internalType": "uint256",
          "name": "",
          "type": "uint256"
        },
        {
          "internalType": "uint256",
          "name": "",
          "type": "uint256"
        },
        {
          "internalType": "string",
          "name": "",
          "type": "string"
        },
        {
          "internalType": "uint256",
          "name": "",
          "type": "uint256"
        },
        {
          "internalType": "enum JobListing.JobStatus",
          "name": "",
          "type": "uint8"
        }
      ],
      "payable": false,
      "stateMutability": "view",
      "type": "function"
    }
  ],
  "bytecode": "0x608060405234801561001057600080fd5b506040516116cf3803806116cf8339818101604052604081101561003357600080fd5b810190808051906020019092919080519060200190929190505050336000806101000a81548173ffffffffffffffffffffffffffffffffffffffff021916908373ffffffffffffffffffffffffffffffffffffffff16021790555081600160006101000a81548173ffffffffffffffffffffffffffffffffffffffff021916908373ffffffffffffffffffffffffffffffffffffffff16021790555080600260006101000a81548173ffffffffffffffffffffffffffffffffffffffff021916908373ffffffffffffffffffffffffffffffffffffffff16021790555050506115ae806101216000396000f3fe608060405234801561001057600080fd5b506004361061009e5760003560e01c806355ddbff51161006657806355ddbff5146103035780637c6d501d146103d25780639212051c146104a15780639c91dd56146104bf578063a1c0d32f146105095761009e565b8063180aedf3146100a35780631dffa3dc1461017b5780631e14e8e1146101a95780634cac35c6146101e15780635000596b146102b9575b600080fd5b6100cf600480360360208110156100b957600080fd5b8101908080359060200190929190505050610537565b60405180878152602001868152602001858152602001806020018481526020018360038111156100fb57fe5b60ff168152602001828103825285818151815260200191508051906020019080838360005b8381101561013b578082015181840152602081019050610120565b50505050905090810190601f1680156101685780820380516001836020036101000a031916815260200191505b5097505050505050505060405180910390f35b6101a76004803603602081101561019157600080fd5b8101908080359060200190929190505050610618565b005b6101df600480360360408110156101bf57600080fd5b81019080803590602001909291908035906020019092919050505061083e565b005b61020d600480360360208110156101f757600080fd5b8101908080359060200190929190505050610b37565b604051808781526020018681526020018581526020018060200184815260200183600381111561023957fe5b60ff168152602001828103825285818151815260200191508051906020019080838360005b8381101561027957808201518184015260208101905061025e565b50505050905090810190601f1680156102a65780820380516001836020036101000a031916815260200191505b5097505050505050505060405180910390f35b6102c1610c34565b604051808273ffffffffffffffffffffffffffffffffffffffff1673ffffffffffffffffffffffffffffffffffffffff16815260200191505060405180910390f35b6103d06004803603606081101561031957600080fd5b81019080803590602001909291908035906020019064010000000081111561034057600080fd5b82018360208201111561035257600080fd5b8035906020019184600183028401116401000000008311171561037457600080fd5b91908080601f016020809104026020016040519081016040528093929190818152602001838380828437600081840152601f19601f82011690508083019250505050505050919291929080359060200190929190505050610c5a565b005b61049f600480360360608110156103e857600080fd5b81019080803590602001909291908035906020019064010000000081111561040f57600080fd5b82018360208201111561042157600080fd5b8035906020019184600183028401116401000000008311171561044357600080fd5b91908080601f016020809104026020016040519081016040528093929190818152602001838380828437600081840152601f19601f82011690508083019250505050505050919291929080359060200190929190505050610f08565b005b6104a961118e565b6040518082815260200191505060405180910390f35b6104c7611194565b604051808273ffffffffffffffffffffffffffffffffffffffff1673ffffffffffffffffffffffffffffffffffffffff16815260200191505060405180910390f35b6105356004803603602081101561051f57600080fd5b81019080803590602001909291905050506111ba565b005b6003602052806000526040600020600091509050806000015490806001015490806002015490806003018054600181600116156101000203166002900480601f0160208091040260200160405190810160405280929190818152602001828054600181600116156101000203166002900480156105f55780601f106105ca576101008083540402835291602001916105f5565b820191906000526020600020905b8154815290600101906020018083116105d857829003601f168201915b5050505050908060040154908060050160009054906101000a900460ff16905086565b6003600082815260200190815260200160002060010154600160009054906101000a900473ffffffffffffffffffffffffffffffffffffffff1673ffffffffffffffffffffffffffffffffffffffff1663bce613f3826040518263ffffffff1660e01b81526004018082815260200191505060206040518083038186803b1580156106a257600080fd5b505afa1580156106b6573d6000803e3d6000fd5b505050506040513d60208110156106cc57600080fd5b8101908080519060200190929190505050610732576040517f08c379a00000000000000000000000000000000000000000000000000000000081526004018080602001828103825260248152602001806115566024913960400191505060405180910390fd5b60006003600084815260200190815260200160002090506000600381111561075657fe5b8160050160009054906101000a900460ff16600381111561077357fe5b146107e6576040517f08c379a000000000000000000000000000000000000000000000000000000000815260040180806020018281038252600f8152602001807f4a6f62206973206e6f74206f70656e000000000000000000000000000000000081525060200191505060405180910390fd5b60038160050160006101000a81548160ff0219169083600381111561080757fe5b0217905550827f58243f872c550ad02802199ade99eb4250f6bb19e9abbf2d3de7b969c0eb5e4f60405160405180910390a2505050565b6000600360008481526020019081526020016000209050600160009054906101000a900473ffffffffffffffffffffffffffffffffffffffff1673ffffffffffffffffffffffffffffffffffffffff16636f049e51836040518263ffffffff1660e01b81526004018082815260200191505060206040518083038186803b1580156108c857600080fd5b505afa1580156108dc573d6000803e3d6000fd5b505050506040513d60208110156108f257600080fd5b8101908080519060200190929190505050610975576040517f08c379a00000000000000000000000000000000000000000000000000000000081526004018080602001828103825260188152602001807f4f6e6c7920667265656c616e636572732063616e20626964000000000000000081525060200191505060405180910390fd5b6000600381111561098257fe5b6003600085815260200190815260200160002060050160009054906101000a900460ff1660038111156109b157fe5b14610a24576040517f08c379a000000000000000000000000000000000000000000000000000000000815260040180806020018281038252601b8152602001807f4a6f62206973206e6f74206f70656e20666f722062696464696e67000000000081525060200191505060405180910390fd5b600260009054906101000a900473ffffffffffffffffffffffffffffffffffffffff1673ffffffffffffffffffffffffffffffffffffffff16638d6e7f5d826001015483600201548685600401546040518563ffffffff1660e01b815260040180858152602001848152602001838152602001828152602001945050505050600060405180830381600087803b158015610abd57600080fd5b505af1158015610ad1573d6000803e3d6000fd5b5050505081816002018190555060018160050160006101000a81548160ff02191690836003811115610aff57fe5b021790555081837fd872a3cec565ab98c318d5d444ccd2c38ae662e40d68d4e9809e27d1c69cc93660405160405180910390a3505050565b6000806000606060008060006003600089815260200190815260200160002090508060000154816001015482600201548360030184600401548560050160009054906101000a900460ff16828054600181600116156101000203166002900480601f016020809104026020016040519081016040528092919081815260200182805460018160011615610100020316600290048015610c175780601f10610bec57610100808354040283529160200191610c17565b820191906000526020600020905b815481529060010190602001808311610bfa57829003601f168201915b505050505092509650965096509650965096505091939550919395565b600160009054906101000a900473ffffffffffffffffffffffffffffffffffffffff1681565b6003600084815260200190815260200160002060010154600160009054906101000a900473ffffffffffffffffffffffffffffffffffffffff1673ffffffffffffffffffffffffffffffffffffffff1663bce613f3826040518263ffffffff1660e01b81526004018082815260200191505060206040518083038186803b158015610ce457600080fd5b505afa158015610cf8573d6000803e3d6000fd5b505050506040513d6020811015610d0e57600080fd5b8101908080519060200190929190505050610d74576040517f08c379a00000000000000000000000000000000000000000000000000000000081526004018080602001828103825260248152602001806115566024913960400191505060405180910390fd5b600060036000868152602001908152602001600020905060006003811115610d9857fe5b6003600087815260200190815260200160002060050160009054906101000a900460ff166003811115610dc757fe5b14610e3a576040517f08c379a000000000000000000000000000000000000000000000000000000000815260040180806020018281038252601a8152602001807f4a6f62206d757374206265206f70656e20746f2075706461746500000000000081525060200191505060405180910390fd5b83816003019080519060200190610e529291906113ff565b50828160040181905550847f43d2aee284ff1fd82e88e97811e103679c45942e0f9e284f23a3f4d5d2d3ea4085856040518080602001838152602001828103825284818151815260200191508051906020019080838360005b83811015610ec6578082015181840152602081019050610eab565b50505050905090810190601f168015610ef35780820380516001836020036101000a031916815260200191505b50935050505060405180910390a25050505050565b82600160009054906101000a900473ffffffffffffffffffffffffffffffffffffffff1673ffffffffffffffffffffffffffffffffffffffff1663bce613f3826040518263ffffffff1660e01b81526004018082815260200191505060206040518083038186803b158015610f7c57600080fd5b505afa158015610f90573d6000803e3d6000fd5b505050506040513d6020811015610fa657600080fd5b810190808051906020019092919050505061100c576040517f08c379a00000000000000000000000000000000000000000000000000000000081526004018080602001828103825260248152602001806115566024913960400191505060405180910390fd5b6004600081548092919060010191905055506040518060c001604052806004548152602001858152602001600081526020018481526020018381526020016000600381111561105757fe5b81525060036000600454815260200190815260200160002060008201518160000155602082015181600101556040820151816002015560608201518160030190805190602001906110a992919061147f565b506080820151816004015560a08201518160050160006101000a81548160ff021916908360038111156110d857fe5b0217905550905050836004547fc43fe45030ce78f42a41a4ff3924ad759483f442a71cf6ea37837dfb0e49f10285856040518080602001838152602001828103825284818151815260200191508051906020019080838360005b8381101561114d578082015181840152602081019050611132565b50505050905090810190601f16801561117a5780820380516001836020036101000a031916815260200191505b50935050505060405180910390a350505050565b60045481565b600260009054906101000a900473ffffffffffffffffffffffffffffffffffffffff1681565b6000600360008381526020019081526020016000209050600160038111156111de57fe5b8160050160009054906101000a900460ff1660038111156111fb57fe5b1461126e576040517f08c379a00000000000000000000000000000000000000000000000000000000081526004018080602001828103825260168152602001807f4a6f62206973206e6f7420696e2070726f67726573730000000000000000000081525060200191505060405180910390fd5b600160009054906101000a900473ffffffffffffffffffffffffffffffffffffffff1673ffffffffffffffffffffffffffffffffffffffff1663049aae9082600201546040518263ffffffff1660e01b81526004018082815260200191505060206040518083038186803b1580156112e557600080fd5b505afa1580156112f9573d6000803e3d6000fd5b505050506040513d602081101561130f57600080fd5b810190808051906020019092919050505073ffffffffffffffffffffffffffffffffffffffff163373ffffffffffffffffffffffffffffffffffffffff16146113a3576040517f08c379a00000000000000000000000000000000000000000000000000000000081526004018080602001828103825260318152602001806115256031913960400191505060405180910390fd5b60028160050160006101000a81548160ff021916908360038111156113c457fe5b02179055508060020154827f152d31e943f2d79d470375c901f5a6cfb7d465ee4969db651885948d3b6015b860405160405180910390a35050565b828054600181600116156101000203166002900490600052602060002090601f016020900481019282601f1061144057805160ff191683800117855561146e565b8280016001018555821561146e579182015b8281111561146d578251825591602001919060010190611452565b5b50905061147b91906114ff565b5090565b828054600181600116156101000203166002900490600052602060002090601f016020900481019282601f106114c057805160ff19168380011785556114ee565b828001600101855582156114ee579182015b828111156114ed5782518255916020019190600101906114d2565b5b5090506114fb91906114ff565b5090565b61152191905b8082111561151d576000816000905550600101611505565b5090565b9056fe4f6e6c79207468652061737369676e656420667265656c616e6365722063616e20636f6d706c65746520746865206a6f624f6e6c7920636c69656e74732063616e20706572666f726d207468697320616374696f6ea265627a7a723158201e07dcec272e16f7e014eb3dc910431cb2e1cf6437e2de1c2519a4ad66d0a55b64736f6c63430005110032",
  "source": "pragma solidity ^0.5.0;\r\n\r\nimport \"./payment/Payment.sol\";\r\nimport \"./User.sol\";\r\n\r\ncontract JobListing {\r\n    address private owner;\r\n    User public userContract;\r\n    Payment public paymentContract;\r\n\r\n    enum JobStatus {\r\n        OPEN,\r\n        IN_PROGRESS,\r\n        COMPLETED,\r\n        CANCELLED\r\n    }\r\n\r\n    struct Job {\r\n        uint256 jobId;\r\n        uint256 clientId;\r\n        uint256 freelancerId;\r\n        string description;\r\n        uint256 paymentAmount;\r\n        JobStatus status;\r\n    }\r\n\r\n    mapping(uint256 => Job) public jobs;\r\n    uint256 public numJobs;\r\n\r\n    event JobListed(\r\n        uint256 indexed jobId,\r\n        uint256 indexed clientId,\r\n        string description,\r\n        uint256 paymentAmount\r\n    );\r\n    event JobUpdated(\r\n        uint256 indexed jobId,\r\n        string description,\r\n        uint256 paymentAmount\r\n    );\r\n    event JobBidded(uint256 indexed jobId, uint256 indexed freelancerId);\r\n    event JobCompleted(uint256 indexed jobId, uint256 indexed freelancerId);\r\n    event JobCancelled(uint256 indexed jobId);\r\n\r\n    constructor(address _userContract, address _paymentContract) public {\r\n        owner = msg.sender;\r\n        userContract = User(_userContract);\r\n        paymentContract = Payment(_paymentContract);\r\n    }\r\n\r\n    modifier onlyClient(uint256 clientId) {\r\n        require(\r\n            userContract.isClient(clientId),\r\n            \"Only clients can perform this action\"\r\n        );\r\n        _;\r\n    }\r\n\r\n    function listJob(\r\n        uint256 clientId,\r\n        string memory description,\r\n        uint256 paymentAmount\r\n    ) public onlyClient(clientId) {\r\n        numJobs++;\r\n        jobs[numJobs] = Job({\r\n            jobId: numJobs,\r\n            clientId: clientId,\r\n            freelancerId: 0,\r\n            description: description,\r\n            paymentAmount: paymentAmount,\r\n            status: JobStatus.OPEN\r\n        });\r\n\r\n        emit JobListed(numJobs, clientId, description, paymentAmount);\r\n    }\r\n\r\n    function updateJob(\r\n        uint256 jobId,\r\n        string memory description,\r\n        uint256 paymentAmount\r\n    ) public onlyClient(jobs[jobId].clientId) {\r\n        Job storage job = jobs[jobId];\r\n        require(\r\n            jobs[jobId].status == JobStatus.OPEN,\r\n            \"Job must be open to update\"\r\n        );\r\n\r\n        job.description = description;\r\n        job.paymentAmount = paymentAmount;\r\n\r\n        emit JobUpdated(jobId, description, paymentAmount);\r\n    }\r\n\r\n    function bidJob(uint256 jobId, uint256 freelancerId) public {\r\n        Job storage job = jobs[jobId];\r\n        require(\r\n            userContract.isFreelancer(freelancerId),\r\n            \"Only freelancers can bid\"\r\n        );\r\n        require(\r\n            jobs[jobId].status == JobStatus.OPEN,\r\n            \"Job is not open for bidding\"\r\n        );\r\n\r\n        // Initiate escrow service payment to payment.sol for the job\r\n        paymentContract.initiatePayment(\r\n            job.clientId,\r\n            job.freelancerId,\r\n            jobId,\r\n            job.paymentAmount\r\n        );\r\n\r\n        job.freelancerId = freelancerId;\r\n        job.status = JobStatus.IN_PROGRESS;\r\n\r\n        emit JobBidded(jobId, freelancerId);\r\n    }\r\n\r\n    function completeJob(uint256 jobId) public {\r\n        Job storage job = jobs[jobId];\r\n        require(job.status == JobStatus.IN_PROGRESS, \"Job is not in progress\");\r\n        require(\r\n            msg.sender == userContract.getAddressFromUserId(job.freelancerId),\r\n            \"Only the assigned freelancer can complete the job\"\r\n        );\r\n\r\n        job.status = JobStatus.COMPLETED;\r\n\r\n        emit JobCompleted(jobId, job.freelancerId);\r\n    }\r\n\r\n    function cancelJob(uint256 jobId) public onlyClient(jobs[jobId].clientId) {\r\n        Job storage job = jobs[jobId];\r\n        require(job.status == JobStatus.OPEN, \"Job is not open\");\r\n\r\n        job.status = JobStatus.CANCELLED;\r\n\r\n        emit JobCancelled(jobId);\r\n    }\r\n\r\n    function getJobDetails(uint256 jobId) public view returns (uint256, uint256, uint256, string memory, uint256, JobStatus) {\r\n        Job storage job = jobs[jobId];\r\n        return (\r\n            job.jobId,\r\n            job.clientId,\r\n            job.freelancerId,\r\n            job.description,\r\n            job.paymentAmount,\r\n            job.status\r\n        );\r\n    }\r\n}\r\n",
  "sourcePath": "C:\\Users\\xibo\\IS4302-Freelancing\\contracts\\JobListing.sol",
  "compiler": {
    "name": "solc",
    "version": "0.5.17+commit.d19bba13.Emscripten.clang"
  },
  "schemaVersion": "3.4.16",
  "updatedAt": "2024-11-21T07:21:28.958Z",
  "devdoc": {
    "methods": {}
  },
  "userdoc": {
    "methods": {}
  }
}