{
  "contractName": "Payment",
  "abi": [
    {
      "inputs": [
        {
          "internalType": "address",
          "name": "_userContract",
          "type": "address"
        },
        {
          "internalType": "address",
          "name": "_tokenContract",
          "type": "address"
        }
      ],
      "payable": false,
      "stateMutability": "nonpayable",
      "type": "constructor"
    },
    {
      "anonymous": false,
      "inputs": [
        {
          "indexed": false,
          "internalType": "uint256",
          "name": "paymentId",
          "type": "uint256"
        }
      ],
      "name": "PaymentCompleted",
      "type": "event"
    },
    {
      "anonymous": false,
      "inputs": [
        {
          "indexed": false,
          "internalType": "uint256",
          "name": "paymentId",
          "type": "uint256"
        }
      ],
      "name": "PaymentFullyRefunded",
      "type": "event"
    },
    {
      "anonymous": false,
      "inputs": [
        {
          "indexed": true,
          "internalType": "uint256",
          "name": "paymentId",
          "type": "uint256"
        },
        {
          "indexed": true,
          "internalType": "uint256",
          "name": "jobId",
          "type": "uint256"
        },
        {
          "indexed": true,
          "internalType": "uint256",
          "name": "freelancerId",
          "type": "uint256"
        },
        {
          "indexed": false,
          "internalType": "uint256",
          "name": "clientId",
          "type": "uint256"
        },
        {
          "indexed": false,
          "internalType": "uint256",
          "name": "amount",
          "type": "uint256"
        }
      ],
      "name": "PaymentInitiated",
      "type": "event"
    },
    {
      "anonymous": false,
      "inputs": [
        {
          "indexed": false,
          "internalType": "uint256",
          "name": "paymentId",
          "type": "uint256"
        }
      ],
      "name": "PaymentPartiallyRefunded",
      "type": "event"
    },
    {
      "constant": true,
      "inputs": [
        {
          "internalType": "uint256",
          "name": "",
          "type": "uint256"
        }
      ],
      "name": "payments",
      "outputs": [
        {
          "internalType": "uint256",
          "name": "clientId",
          "type": "uint256"
        },
        {
          "internalType": "uint256",
          "name": "freelancerId",
          "type": "uint256"
        },
        {
          "internalType": "uint256",
          "name": "jobId",
          "type": "uint256"
        },
        {
          "internalType": "uint256",
          "name": "amount",
          "type": "uint256"
        },
        {
          "internalType": "uint256",
          "name": "balance",
          "type": "uint256"
        },
        {
          "internalType": "enum Payment.PaymentStatus",
          "name": "status",
          "type": "uint8"
        }
      ],
      "payable": false,
      "stateMutability": "view",
      "type": "function"
    },
    {
      "constant": true,
      "inputs": [],
      "name": "tokenContract",
      "outputs": [
        {
          "internalType": "contract WorkHiveToken",
          "name": "",
          "type": "address"
        }
      ],
      "payable": false,
      "stateMutability": "view",
      "type": "function"
    },
    {
      "constant": true,
      "inputs": [],
      "name": "userContract",
      "outputs": [
        {
          "internalType": "contract User",
          "name": "",
          "type": "address"
        }
      ],
      "payable": false,
      "stateMutability": "view",
      "type": "function"
    },
    {
      "constant": false,
      "inputs": [
        {
          "internalType": "uint256",
          "name": "clientId",
          "type": "uint256"
        },
        {
          "internalType": "uint256",
          "name": "freelancerId",
          "type": "uint256"
        },
        {
          "internalType": "uint256",
          "name": "jobId",
          "type": "uint256"
        },
        {
          "internalType": "uint256",
          "name": "amount",
          "type": "uint256"
        }
      ],
      "name": "initiatePayment",
      "outputs": [],
      "payable": false,
      "stateMutability": "nonpayable",
      "type": "function"
    },
    {
      "constant": false,
      "inputs": [
        {
          "internalType": "uint256",
          "name": "paymentId",
          "type": "uint256"
        }
      ],
      "name": "completePayment",
      "outputs": [],
      "payable": false,
      "stateMutability": "nonpayable",
      "type": "function"
    },
    {
      "constant": false,
      "inputs": [
        {
          "internalType": "uint256",
          "name": "paymentId",
          "type": "uint256"
        }
      ],
      "name": "refundPayment",
      "outputs": [],
      "payable": false,
      "stateMutability": "nonpayable",
      "type": "function"
    },
    {
      "constant": true,
      "inputs": [
        {
          "internalType": "uint256",
          "name": "paymentId",
          "type": "uint256"
        }
      ],
      "name": "getCurrentStatus",
      "outputs": [
        {
          "internalType": "enum Payment.PaymentStatus",
          "name": "",
          "type": "uint8"
        }
      ],
      "payable": false,
      "stateMutability": "view",
      "type": "function"
    },
    {
      "constant": true,
      "inputs": [
        {
          "internalType": "uint256",
          "name": "paymentId",
          "type": "uint256"
        }
      ],
      "name": "getPaymentDetails",
      "outputs": [
        {
          "internalType": "uint256",
          "name": "",
          "type": "uint256"
        },
        {
          "internalType": "uint256",
          "name": "",
          "type": "uint256"
        },
        {
          "internalType": "uint256",
          "name": "",
          "type": "uint256"
        },
        {
          "internalType": "uint256",
          "name": "",
          "type": "uint256"
        },
        {
          "internalType": "uint256",
          "name": "",
          "type": "uint256"
        },
        {
          "internalType": "enum Payment.PaymentStatus",
          "name": "",
          "type": "uint8"
        }
      ],
      "payable": false,
      "stateMutability": "view",
      "type": "function"
    }
  ],
  "bytecode": "0x608060405234801561001057600080fd5b506040516113e83803806113e88339818101604052604081101561003357600080fd5b810190808051906020019092919080519060200190929190505050336000806101000a81548173ffffffffffffffffffffffffffffffffffffffff021916908373ffffffffffffffffffffffffffffffffffffffff16021790555081600160006101000a81548173ffffffffffffffffffffffffffffffffffffffff021916908373ffffffffffffffffffffffffffffffffffffffff16021790555080600260006101000a81548173ffffffffffffffffffffffffffffffffffffffff021916908373ffffffffffffffffffffffffffffffffffffffff16021790555050506112c7806101216000396000f3fe608060405234801561001057600080fd5b50600436106100885760003560e01c80638d6e7f5d1161005b5780638d6e7f5d146101c25780639e70df211461020e578063a0aa13c614610281578063f63813f4146102d157610088565b80634f01c6f21461008d5780635000596b146100bb57806355a373d61461010557806387d817891461014f575b600080fd5b6100b9600480360360208110156100a357600080fd5b81019080803590602001909291905050506102ff565b005b6100c3610754565b604051808273ffffffffffffffffffffffffffffffffffffffff1673ffffffffffffffffffffffffffffffffffffffff16815260200191505060405180910390f35b61010d61077a565b604051808273ffffffffffffffffffffffffffffffffffffffff1673ffffffffffffffffffffffffffffffffffffffff16815260200191505060405180910390f35b61017b6004803603602081101561016557600080fd5b81019080803590602001909291905050506107a0565b604051808781526020018681526020018581526020018481526020018381526020018260028111156101a957fe5b60ff168152602001965050505050505060405180910390f35b61020c600480360360808110156101d857600080fd5b81019080803590602001909291908035906020019092919080359060200190929190803590602001909291905050506107e9565b005b61023a6004803603602081101561022457600080fd5b8101908080359060200190929190505050610e89565b6040518087815260200186815260200185815260200184815260200183815260200182600281111561026857fe5b60ff168152602001965050505050505060405180910390f35b6102ad6004803603602081101561029757600080fd5b8101908080359060200190929190505050610eea565b604051808260028111156102bd57fe5b60ff16815260200191505060405180910390f35b6102fd600480360360208110156102e757600080fd5b8101908080359060200190929190505050610f17565b005b60006003600083815260200190815260200160002090506000600281111561032357fe5b8160050160009054906101000a900460ff16600281111561034057fe5b14610396576040517f08c379a000000000000000000000000000000000000000000000000000000000815260040180806020018281038252602481526020018061126f6024913960400191505060405180910390fd5b6000600160009054906101000a900473ffffffffffffffffffffffffffffffffffffffff1673ffffffffffffffffffffffffffffffffffffffff1663049aae9083600101546040518263ffffffff1660e01b81526004018082815260200191505060206040518083038186803b15801561040f57600080fd5b505afa158015610423573d6000803e3d6000fd5b505050506040513d602081101561043957600080fd5b810190808051906020019092919050505090506000600260009054906101000a900473ffffffffffffffffffffffffffffffffffffffff1673ffffffffffffffffffffffffffffffffffffffff166370a08231306040518263ffffffff1660e01b8152600401808273ffffffffffffffffffffffffffffffffffffffff1673ffffffffffffffffffffffffffffffffffffffff16815260200191505060206040518083038186803b1580156104ed57600080fd5b505afa158015610501573d6000803e3d6000fd5b505050506040513d602081101561051757600080fd5b8101908080519060200190929190505050905082600301548110156105a4576040517f08c379a00000000000000000000000000000000000000000000000000000000081526004018080602001828103825260208152602001807f5061796d656e7420636f6e74726163742062616c616e636520746f6f206c6f7781525060200191505060405180910390fd5b6000600260009054906101000a900473ffffffffffffffffffffffffffffffffffffffff1673ffffffffffffffffffffffffffffffffffffffff1663a9059cbb8486600301546040518363ffffffff1660e01b8152600401808373ffffffffffffffffffffffffffffffffffffffff1673ffffffffffffffffffffffffffffffffffffffff16815260200182815260200192505050602060405180830381600087803b15801561065357600080fd5b505af1158015610667573d6000803e3d6000fd5b505050506040513d602081101561067d57600080fd5b81019080805190602001909291905050509050806106e6576040517f08c379a00000000000000000000000000000000000000000000000000000000081526004018080602001828103825260238152602001806112236023913960400191505060405180910390fd5b6000846004018190555060018460050160006101000a81548160ff0219169083600281111561071157fe5b02179055507f6bef1b5e95b741d6e665eb9b5c2d3e1203c46a771451055a9d41e0b8ff4510b7856040518082815260200191505060405180910390a15050505050565b600160009054906101000a900473ffffffffffffffffffffffffffffffffffffffff1681565b600260009054906101000a900473ffffffffffffffffffffffffffffffffffffffff1681565b60036020528060005260406000206000915090508060000154908060010154908060020154908060030154908060040154908060050160009054906101000a900460ff16905086565b600160009054906101000a900473ffffffffffffffffffffffffffffffffffffffff1673ffffffffffffffffffffffffffffffffffffffff1663bce613f3856040518263ffffffff1660e01b81526004018082815260200191505060206040518083038186803b15801561085c57600080fd5b505afa158015610870573d6000803e3d6000fd5b505050506040513d602081101561088657600080fd5b81019080805190602001909291905050506108ec576040517f08c379a00000000000000000000000000000000000000000000000000000000081526004018080602001828103825260228152602001806111dd6022913960400191505060405180910390fd5b600160009054906101000a900473ffffffffffffffffffffffffffffffffffffffff1673ffffffffffffffffffffffffffffffffffffffff16636f049e51846040518263ffffffff1660e01b81526004018082815260200191505060206040518083038186803b15801561095f57600080fd5b505afa158015610973573d6000803e3d6000fd5b505050506040513d602081101561098957600080fd5b81019080805190602001909291905050506109ef576040517f08c379a00000000000000000000000000000000000000000000000000000000081526004018080602001828103825260248152602001806111ff6024913960400191505060405180910390fd5b6000600160009054906101000a900473ffffffffffffffffffffffffffffffffffffffff1673ffffffffffffffffffffffffffffffffffffffff1663049aae90866040518263ffffffff1660e01b81526004018082815260200191505060206040518083038186803b158015610a6457600080fd5b505afa158015610a78573d6000803e3d6000fd5b505050506040513d6020811015610a8e57600080fd5b810190808051906020019092919050505090506000600260009054906101000a900473ffffffffffffffffffffffffffffffffffffffff1673ffffffffffffffffffffffffffffffffffffffff1663dd62ed3e83306040518363ffffffff1660e01b8152600401808373ffffffffffffffffffffffffffffffffffffffff1673ffffffffffffffffffffffffffffffffffffffff1681526020018273ffffffffffffffffffffffffffffffffffffffff1673ffffffffffffffffffffffffffffffffffffffff1681526020019250505060206040518083038186803b158015610b7657600080fd5b505afa158015610b8a573d6000803e3d6000fd5b505050506040513d6020811015610ba057600080fd5b8101908080519060200190929190505050905082811015610c0c576040517f08c379a00000000000000000000000000000000000000000000000000000000081526004018080602001828103825260298152602001806112466029913960400191505060405180910390fd5b6000600260009054906101000a900473ffffffffffffffffffffffffffffffffffffffff1673ffffffffffffffffffffffffffffffffffffffff166323b872dd8430876040518463ffffffff1660e01b8152600401808473ffffffffffffffffffffffffffffffffffffffff1673ffffffffffffffffffffffffffffffffffffffff1681526020018373ffffffffffffffffffffffffffffffffffffffff1673ffffffffffffffffffffffffffffffffffffffff1681526020018281526020019350505050602060405180830381600087803b158015610ceb57600080fd5b505af1158015610cff573d6000803e3d6000fd5b505050506040513d6020811015610d1557600080fd5b8101908080519060200190929190505050905080610d7e576040517f08c379a00000000000000000000000000000000000000000000000000000000081526004018080602001828103825260298152602001806111b46029913960400191505060405180910390fd5b6040518060c0016040528088815260200187815260200186815260200185815260200185815260200160006002811115610db457fe5b815250600360006004548152602001908152602001600020600082015181600001556020820151816001015560408201518160020155606082015181600301556080820151816004015560a08201518160050160006101000a81548160ff02191690836002811115610e2257fe5b021790555090505085856004547f2157072e3a92a71c8da6fbd80a6bff3fefaafb5a06c57633d29ed470b3f0ac528a88604051808381526020018281526020019250505060405180910390a460046000815480929190600101919050555050505050505050565b6000806000806000806000600360008981526020019081526020016000209050806000015481600101548260020154836003015484600401548560050160009054906101000a900460ff169650965096509650965096505091939550919395565b60006003600083815260200190815260200160002060050160009054906101000a900460ff169050919050565b600060036000838152602001908152602001600020905060006002811115610f3b57fe5b8160050160009054906101000a900460ff166002811115610f5857fe5b14610fae576040517f08c379a000000000000000000000000000000000000000000000000000000000815260040180806020018281038252602481526020018061126f6024913960400191505060405180910390fd5b600260009054906101000a900473ffffffffffffffffffffffffffffffffffffffff1673ffffffffffffffffffffffffffffffffffffffff1663a9059cbb600160009054906101000a900473ffffffffffffffffffffffffffffffffffffffff1673ffffffffffffffffffffffffffffffffffffffff1663049aae9084600001546040518263ffffffff1660e01b81526004018082815260200191505060206040518083038186803b15801561106357600080fd5b505afa158015611077573d6000803e3d6000fd5b505050506040513d602081101561108d57600080fd5b810190808051906020019092919050505083600401546040518363ffffffff1660e01b8152600401808373ffffffffffffffffffffffffffffffffffffffff1673ffffffffffffffffffffffffffffffffffffffff16815260200182815260200192505050602060405180830381600087803b15801561110c57600080fd5b505af1158015611120573d6000803e3d6000fd5b505050506040513d602081101561113657600080fd5b8101908080519060200190929190505050506000816004018190555060028160050160006101000a81548160ff0219169083600281111561117357fe5b02179055507f78ef7e65b3ecc138f0b77d5c957fb819031e377cbb497f40fb3a0b7f0585b030826040518082815260200191505060405180910390a1505056fe546f6b656e207472616e7366657220746f205061796d656e7420636f6e7472616374206661696c65644f6e6c7920636c69656e74732063616e20696e697469617465207061796d656e74735061796d656e7473206d757374206265206d61646520746f20667265656c616e63657273546f6b656e207472616e7366657220746f20667265656c616e636572206661696c65644e6f7420656e6f75676820616c6c6f77616e636520666f72205061796d656e7420636f6e74726163745061796d656e74206973206e6f7420696e2074686520636f727265637420737461747573a265627a7a72315820e244fe8db384b81d9c4fae8265f573fffb2b850ab4126b99ece22dacadbf889a64736f6c63430005110032",
  "source": "pragma solidity ^0.5.0;\n\nimport \"./WorkHiveToken.sol\";\nimport \"../User.sol\";\n\ncontract Payment {\n    address private owner;\n    User public userContract;\n    WorkHiveToken public tokenContract;\n\n    enum PaymentStatus {\n        PAYMENT_PENDING,\n        JOB_COMPLETE,\n        REFUNDED\n    }\n\n    struct PaymentDetails {\n        uint256 clientId;\n        uint256 freelancerId;\n        uint256 jobId;\n        uint256 amount;\n        uint256 balance;\n        PaymentStatus status;\n    }\n\n    mapping(uint256 => PaymentDetails) public payments;\n    uint256 private numPayments; // to track payment IDs\n\n    event PaymentInitiated(\n        uint256 indexed paymentId,\n        uint256 indexed jobId,\n        uint256 indexed freelancerId,\n        uint256 clientId,\n        uint256 amount\n    );\n    event PaymentCompleted(uint256 paymentId);\n    event PaymentPartiallyRefunded(uint256 paymentId);\n    event PaymentFullyRefunded(uint256 paymentId);\n\n    constructor(address _userContract, address _tokenContract) public {\n        owner = msg.sender;\n        userContract = User(_userContract); // corrected reference to User contract\n        tokenContract = WorkHiveToken(_tokenContract);\n    }\n\n    modifier onlyOwner() {\n        require(msg.sender == owner, \"You do not have permission to do this\");\n        _;\n    }\n\n    // function initiatePayment(\n    //     uint256 clientId,\n    //     uint256 freelancerId,\n    //     uint256 jobId,\n    //     uint256 amount\n    // ) public {\n    //     require(\n    //         userContract.isClient(clientId),\n    //         \"Only clients can initiate payments\"\n    //     );\n    //     require(\n    //         userContract.isFreelancer(freelancerId),\n    //         \"Payments must be made to freelancers\"\n    //     );\n\n    //     tokenContract.transferFrom(userContract.getAddressFromUserId(clientId), address(this), amount);\n\n    //     tokenContract.approve(address(this), amount);\n\n    //     payments[numPayments] = PaymentDetails({\n    //         clientId: clientId,\n    //         freelancerId: freelancerId,\n    //         jobId: jobId,\n    //         amount: amount,\n    //         balance: amount,\n    //         status: PaymentStatus.PAYMENT_PENDING\n    //     });\n\n    //     emit PaymentInitiated(\n    //         numPayments,\n    //         jobId,\n    //         freelancerId,\n    //         clientId,\n    //         amount\n    //     );\n    //     numPayments++; // increment payment count\n    // }\n\n    function initiatePayment(\n        uint256 clientId,\n        uint256 freelancerId,\n        uint256 jobId,\n        uint256 amount\n    ) public {\n        require(\n            userContract.isClient(clientId),\n            \"Only clients can initiate payments\"\n        );\n        require(\n            userContract.isFreelancer(freelancerId),\n            \"Payments must be made to freelancers\"\n        );\n\n        address clientAddress = userContract.getAddressFromUserId(clientId);\n\n        // Ensure allowance is sufficient\n        uint256 allowance = tokenContract.allowance(\n            clientAddress,\n            address(this)\n        );\n        require(\n            allowance >= amount,\n            \"Not enough allowance for Payment contract\"\n        );\n\n        // Transfer tokens to Payment contract\n        bool success = tokenContract.transferFrom(\n            clientAddress,\n            address(this),\n            amount\n        );\n        require(success, \"Token transfer to Payment contract failed\");\n\n        payments[numPayments] = PaymentDetails({\n            clientId: clientId,\n            freelancerId: freelancerId,\n            jobId: jobId,\n            amount: amount,\n            balance: amount,\n            status: PaymentStatus.PAYMENT_PENDING\n        });\n\n        emit PaymentInitiated(\n            numPayments,\n            jobId,\n            freelancerId,\n            clientId,\n            amount\n        );\n        numPayments++; // increment payment count\n    }\n\n    // function completePayment(uint256 paymentId) public {\n    //     PaymentDetails storage payment = payments[paymentId];\n    //     require(\n    //         payment.status == PaymentStatus.PAYMENT_PENDING,\n    //         \"Payment is not in the correct status\"\n    //     );\n\n    //     // Ensure the contract has enough tokens\n    //     uint256 contractBalance = tokenContract.balanceOf(address(this));\n    //     require(\n    //         contractBalance >= payment.amount,\n    //         \"Payment contract balance too low\"\n    //     );\n\n    //     // Transfer tokens to the freelancer\n    //     tokenContract.transfer(\n    //         userContract.getAddressFromUserId(payment.freelancerId),\n    //         payment.amount\n    //     );\n\n    //     payment.balance = 0;\n    //     payment.status = PaymentStatus.JOB_COMPLETE;\n\n    //     emit PaymentCompleted(paymentId);\n    // }\n\n    function completePayment(uint256 paymentId) public {\n        PaymentDetails storage payment = payments[paymentId];\n        require(\n            payment.status == PaymentStatus.PAYMENT_PENDING,\n            \"Payment is not in the correct status\"\n        );\n\n        address freelancerAddress = userContract.getAddressFromUserId(\n            payment.freelancerId\n        );\n\n        // Ensure Payment contract has enough tokens\n        uint256 contractBalance = tokenContract.balanceOf(address(this));\n        require(\n            contractBalance >= payment.amount,\n            \"Payment contract balance too low\"\n        );\n\n        // Transfer tokens to freelancer\n        bool success = tokenContract.transfer(\n            freelancerAddress,\n            payment.amount\n        );\n        require(success, \"Token transfer to freelancer failed\");\n\n        payment.balance = 0;\n        payment.status = PaymentStatus.JOB_COMPLETE;\n\n        emit PaymentCompleted(paymentId);\n    }\n\n    function refundPayment(uint256 paymentId) public {\n        PaymentDetails storage payment = payments[paymentId];\n        require(\n            payment.status == PaymentStatus.PAYMENT_PENDING,\n            \"Payment is not in the correct status\"\n        );\n\n        tokenContract.transfer(\n            userContract.getAddressFromUserId(payment.clientId),\n            payment.balance\n        );\n        payment.balance = 0;\n        payment.status = PaymentStatus.REFUNDED;\n\n        emit PaymentFullyRefunded(paymentId); // corrected event name\n    }\n\n    function getCurrentStatus(\n        uint256 paymentId\n    ) public view returns (PaymentStatus) {\n        return payments[paymentId].status;\n    }\n\n    function getPaymentDetails(\n        uint256 paymentId\n    )\n        public\n        view\n        returns (uint256, uint256, uint256, uint256, uint256, PaymentStatus)\n    {\n        PaymentDetails storage payment = payments[paymentId];\n        return (\n            payment.clientId,\n            payment.freelancerId,\n            payment.jobId,\n            payment.amount,\n            payment.balance,\n            payment.status\n        );\n    }\n}\n",
  "sourcePath": "/Users/kordelia/nus/Y3S1/IS4302/IS4302-Freelancing/contracts/payment/Payment.sol",
  "compiler": {
    "name": "solc",
    "version": "0.5.17+commit.d19bba13.Emscripten.clang"
  },
  "schemaVersion": "3.4.16",
  "updatedAt": "2024-11-20T12:13:39.990Z",
  "networkType": "ethereum",
  "devdoc": {
    "methods": {}
  },
  "userdoc": {
    "methods": {}
  }
}