{
  "contractName": "Payment",
  "abi": [
    {
      "inputs": [
        {
          "internalType": "address",
          "name": "_userContract",
          "type": "address"
        },
        {
          "internalType": "address",
          "name": "_tokenContract",
          "type": "address"
        }
      ],
      "payable": false,
      "stateMutability": "nonpayable",
      "type": "constructor"
    },
    {
      "anonymous": false,
      "inputs": [
        {
          "indexed": false,
          "internalType": "uint256",
          "name": "paymentId",
          "type": "uint256"
        }
      ],
      "name": "PaymentCompleted",
      "type": "event"
    },
    {
      "anonymous": false,
      "inputs": [
        {
          "indexed": false,
          "internalType": "uint256",
          "name": "paymentId",
          "type": "uint256"
        }
      ],
      "name": "PaymentFullyRefunded",
      "type": "event"
    },
    {
      "anonymous": false,
      "inputs": [
        {
          "indexed": true,
          "internalType": "uint256",
          "name": "paymentId",
          "type": "uint256"
        },
        {
          "indexed": true,
          "internalType": "uint256",
          "name": "jobId",
          "type": "uint256"
        },
        {
          "indexed": true,
          "internalType": "uint256",
          "name": "freelancerId",
          "type": "uint256"
        },
        {
          "indexed": false,
          "internalType": "uint256",
          "name": "clientId",
          "type": "uint256"
        },
        {
          "indexed": false,
          "internalType": "uint256",
          "name": "amount",
          "type": "uint256"
        }
      ],
      "name": "PaymentInitiated",
      "type": "event"
    },
    {
      "anonymous": false,
      "inputs": [
        {
          "indexed": false,
          "internalType": "uint256",
          "name": "paymentId",
          "type": "uint256"
        }
      ],
      "name": "PaymentPartiallyRefunded",
      "type": "event"
    },
    {
      "constant": true,
      "inputs": [
        {
          "internalType": "uint256",
          "name": "",
          "type": "uint256"
        }
      ],
      "name": "payments",
      "outputs": [
        {
          "internalType": "uint256",
          "name": "clientId",
          "type": "uint256"
        },
        {
          "internalType": "uint256",
          "name": "freelancerId",
          "type": "uint256"
        },
        {
          "internalType": "uint256",
          "name": "jobId",
          "type": "uint256"
        },
        {
          "internalType": "uint256",
          "name": "amount",
          "type": "uint256"
        },
        {
          "internalType": "uint256",
          "name": "balance",
          "type": "uint256"
        },
        {
          "internalType": "enum Payment.PaymentStatus",
          "name": "status",
          "type": "uint8"
        }
      ],
      "payable": false,
      "stateMutability": "view",
      "type": "function"
    },
    {
      "constant": true,
      "inputs": [],
      "name": "tokenContract",
      "outputs": [
        {
          "internalType": "contract WorkHiveToken",
          "name": "",
          "type": "address"
        }
      ],
      "payable": false,
      "stateMutability": "view",
      "type": "function"
    },
    {
      "constant": true,
      "inputs": [],
      "name": "userContract",
      "outputs": [
        {
          "internalType": "contract User",
          "name": "",
          "type": "address"
        }
      ],
      "payable": false,
      "stateMutability": "view",
      "type": "function"
    },
    {
      "constant": false,
      "inputs": [
        {
          "internalType": "uint256",
          "name": "clientId",
          "type": "uint256"
        },
        {
          "internalType": "uint256",
          "name": "freelancerId",
          "type": "uint256"
        },
        {
          "internalType": "uint256",
          "name": "jobId",
          "type": "uint256"
        },
        {
          "internalType": "uint256",
          "name": "amount",
          "type": "uint256"
        }
      ],
      "name": "initiatePayment",
      "outputs": [],
      "payable": false,
      "stateMutability": "nonpayable",
      "type": "function"
    },
    {
      "constant": false,
      "inputs": [
        {
          "internalType": "uint256",
          "name": "paymentId",
          "type": "uint256"
        }
      ],
      "name": "completePayment",
      "outputs": [],
      "payable": false,
      "stateMutability": "nonpayable",
      "type": "function"
    },
    {
      "constant": false,
      "inputs": [
        {
          "internalType": "uint256",
          "name": "paymentId",
          "type": "uint256"
        }
      ],
      "name": "refundPayment",
      "outputs": [],
      "payable": false,
      "stateMutability": "nonpayable",
      "type": "function"
    },
    {
      "constant": true,
      "inputs": [
        {
          "internalType": "uint256",
          "name": "paymentId",
          "type": "uint256"
        }
      ],
      "name": "getCurrentStatus",
      "outputs": [
        {
          "internalType": "enum Payment.PaymentStatus",
          "name": "",
          "type": "uint8"
        }
      ],
      "payable": false,
      "stateMutability": "view",
      "type": "function"
    },
    {
      "constant": true,
      "inputs": [
        {
          "internalType": "uint256",
          "name": "paymentId",
          "type": "uint256"
        }
      ],
      "name": "getPaymentDetails",
      "outputs": [
        {
          "internalType": "uint256",
          "name": "",
          "type": "uint256"
        },
        {
          "internalType": "uint256",
          "name": "",
          "type": "uint256"
        },
        {
          "internalType": "uint256",
          "name": "",
          "type": "uint256"
        },
        {
          "internalType": "uint256",
          "name": "",
          "type": "uint256"
        },
        {
          "internalType": "uint256",
          "name": "",
          "type": "uint256"
        },
        {
          "internalType": "enum Payment.PaymentStatus",
          "name": "",
          "type": "uint8"
        }
      ],
      "payable": false,
      "stateMutability": "view",
      "type": "function"
    }
  ],
  "bytecode": "0x608060405234801561001057600080fd5b50604051610fee380380610fee8339818101604052604081101561003357600080fd5b810190808051906020019092919080519060200190929190505050336000806101000a81548173ffffffffffffffffffffffffffffffffffffffff021916908373ffffffffffffffffffffffffffffffffffffffff16021790555081600160006101000a81548173ffffffffffffffffffffffffffffffffffffffff021916908373ffffffffffffffffffffffffffffffffffffffff16021790555080600260006101000a81548173ffffffffffffffffffffffffffffffffffffffff021916908373ffffffffffffffffffffffffffffffffffffffff1602179055505050610ecd806101216000396000f3fe608060405234801561001057600080fd5b50600436106100885760003560e01c80638d6e7f5d1161005b5780638d6e7f5d146101c25780639e70df211461020e578063a0aa13c614610281578063f63813f4146102d157610088565b80634f01c6f21461008d5780635000596b146100bb57806355a373d61461010557806387d817891461014f575b600080fd5b6100b9600480360360208110156100a357600080fd5b81019080803590602001909291905050506102ff565b005b6100c361059b565b604051808273ffffffffffffffffffffffffffffffffffffffff1673ffffffffffffffffffffffffffffffffffffffff16815260200191505060405180910390f35b61010d6105c1565b604051808273ffffffffffffffffffffffffffffffffffffffff1673ffffffffffffffffffffffffffffffffffffffff16815260200191505060405180910390f35b61017b6004803603602081101561016557600080fd5b81019080803590602001909291905050506105e7565b604051808781526020018681526020018581526020018481526020018381526020018260028111156101a957fe5b60ff168152602001965050505050505060405180910390f35b61020c600480360360808110156101d857600080fd5b8101908080359060200190929190803590602001909291908035906020019092919080359060200190929190505050610630565b005b61023a6004803603602081101561022457600080fd5b8101908080359060200190929190505050610b04565b6040518087815260200186815260200185815260200184815260200183815260200182600281111561026857fe5b60ff168152602001965050505050505060405180910390f35b6102ad6004803603602081101561029757600080fd5b8101908080359060200190929190505050610b65565b604051808260028111156102bd57fe5b60ff16815260200191505060405180910390f35b6102fd600480360360208110156102e757600080fd5b8101908080359060200190929190505050610b92565b005b60006003600083815260200190815260200160002090506000600281111561032357fe5b8160050160009054906101000a900460ff16600281111561034057fe5b14610396576040517f08c379a0000000000000000000000000000000000000000000000000000000008152600401808060200182810382526024815260200180610e756024913960400191505060405180910390fd5b600260009054906101000a900473ffffffffffffffffffffffffffffffffffffffff1673ffffffffffffffffffffffffffffffffffffffff1663a9059cbb600160009054906101000a900473ffffffffffffffffffffffffffffffffffffffff1673ffffffffffffffffffffffffffffffffffffffff1663049aae9084600101546040518263ffffffff1660e01b81526004018082815260200191505060206040518083038186803b15801561044b57600080fd5b505afa15801561045f573d6000803e3d6000fd5b505050506040513d602081101561047557600080fd5b810190808051906020019092919050505083600301546040518363ffffffff1660e01b8152600401808373ffffffffffffffffffffffffffffffffffffffff1673ffffffffffffffffffffffffffffffffffffffff16815260200182815260200192505050602060405180830381600087803b1580156104f457600080fd5b505af1158015610508573d6000803e3d6000fd5b505050506040513d602081101561051e57600080fd5b8101908080519060200190929190505050506000816004018190555060018160050160006101000a81548160ff0219169083600281111561055b57fe5b02179055507f6bef1b5e95b741d6e665eb9b5c2d3e1203c46a771451055a9d41e0b8ff4510b7826040518082815260200191505060405180910390a15050565b600160009054906101000a900473ffffffffffffffffffffffffffffffffffffffff1681565b600260009054906101000a900473ffffffffffffffffffffffffffffffffffffffff1681565b60036020528060005260406000206000915090508060000154908060010154908060020154908060030154908060040154908060050160009054906101000a900460ff16905086565b600160009054906101000a900473ffffffffffffffffffffffffffffffffffffffff1673ffffffffffffffffffffffffffffffffffffffff1663bce613f3856040518263ffffffff1660e01b81526004018082815260200191505060206040518083038186803b1580156106a357600080fd5b505afa1580156106b7573d6000803e3d6000fd5b505050506040513d60208110156106cd57600080fd5b8101908080519060200190929190505050610733576040517f08c379a0000000000000000000000000000000000000000000000000000000008152600401808060200182810382526022815260200180610e2f6022913960400191505060405180910390fd5b600160009054906101000a900473ffffffffffffffffffffffffffffffffffffffff1673ffffffffffffffffffffffffffffffffffffffff16636f049e51846040518263ffffffff1660e01b81526004018082815260200191505060206040518083038186803b1580156107a657600080fd5b505afa1580156107ba573d6000803e3d6000fd5b505050506040513d60208110156107d057600080fd5b8101908080519060200190929190505050610836576040517f08c379a0000000000000000000000000000000000000000000000000000000008152600401808060200182810382526024815260200180610e516024913960400191505060405180910390fd5b600260009054906101000a900473ffffffffffffffffffffffffffffffffffffffff1673ffffffffffffffffffffffffffffffffffffffff166323b872dd600160009054906101000a900473ffffffffffffffffffffffffffffffffffffffff1673ffffffffffffffffffffffffffffffffffffffff1663049aae90876040518263ffffffff1660e01b81526004018082815260200191505060206040518083038186803b1580156108e757600080fd5b505afa1580156108fb573d6000803e3d6000fd5b505050506040513d602081101561091157600080fd5b810190808051906020019092919050505030846040518463ffffffff1660e01b8152600401808473ffffffffffffffffffffffffffffffffffffffff1673ffffffffffffffffffffffffffffffffffffffff1681526020018373ffffffffffffffffffffffffffffffffffffffff1673ffffffffffffffffffffffffffffffffffffffff1681526020018281526020019350505050602060405180830381600087803b1580156109c057600080fd5b505af11580156109d4573d6000803e3d6000fd5b505050506040513d60208110156109ea57600080fd5b8101908080519060200190929190505050506040518060c0016040528085815260200184815260200183815260200182815260200182815260200160006002811115610a3257fe5b815250600360006004548152602001908152602001600020600082015181600001556020820151816001015560408201518160020155606082015181600301556080820151816004015560a08201518160050160006101000a81548160ff02191690836002811115610aa057fe5b021790555090505082826004547f2157072e3a92a71c8da6fbd80a6bff3fefaafb5a06c57633d29ed470b3f0ac528785604051808381526020018281526020019250505060405180910390a460046000815480929190600101919050555050505050565b6000806000806000806000600360008981526020019081526020016000209050806000015481600101548260020154836003015484600401548560050160009054906101000a900460ff169650965096509650965096505091939550919395565b60006003600083815260200190815260200160002060050160009054906101000a900460ff169050919050565b600060036000838152602001908152602001600020905060006002811115610bb657fe5b8160050160009054906101000a900460ff166002811115610bd357fe5b14610c29576040517f08c379a0000000000000000000000000000000000000000000000000000000008152600401808060200182810382526024815260200180610e756024913960400191505060405180910390fd5b600260009054906101000a900473ffffffffffffffffffffffffffffffffffffffff1673ffffffffffffffffffffffffffffffffffffffff1663a9059cbb600160009054906101000a900473ffffffffffffffffffffffffffffffffffffffff1673ffffffffffffffffffffffffffffffffffffffff1663049aae9084600001546040518263ffffffff1660e01b81526004018082815260200191505060206040518083038186803b158015610cde57600080fd5b505afa158015610cf2573d6000803e3d6000fd5b505050506040513d6020811015610d0857600080fd5b810190808051906020019092919050505083600401546040518363ffffffff1660e01b8152600401808373ffffffffffffffffffffffffffffffffffffffff1673ffffffffffffffffffffffffffffffffffffffff16815260200182815260200192505050602060405180830381600087803b158015610d8757600080fd5b505af1158015610d9b573d6000803e3d6000fd5b505050506040513d6020811015610db157600080fd5b8101908080519060200190929190505050506000816004018190555060028160050160006101000a81548160ff02191690836002811115610dee57fe5b02179055507f78ef7e65b3ecc138f0b77d5c957fb819031e377cbb497f40fb3a0b7f0585b030826040518082815260200191505060405180910390a1505056fe4f6e6c7920636c69656e74732063616e20696e697469617465207061796d656e74735061796d656e7473206d757374206265206d61646520746f20667265656c616e636572735061796d656e74206973206e6f7420696e2074686520636f727265637420737461747573a265627a7a72315820976a4aea55ef3b929af327ab58d8c4f783020a0820b8f627d21e30be4218efc264736f6c63430005110032",
  "source": "pragma solidity ^0.5.0;\n\nimport \"./WorkHiveToken.sol\";\nimport \"../User.sol\";\n\ncontract Payment {\n    address private owner;\n    User public userContract;\n    WorkHiveToken public tokenContract;\n\n    enum PaymentStatus {\n        PAYMENT_PENDING,\n        JOB_COMPLETE,\n        REFUNDED\n    }\n\n    struct PaymentDetails {\n        uint256 clientId;\n        uint256 freelancerId;\n        uint256 jobId;\n        uint256 amount;\n        uint256 balance;\n        PaymentStatus status;\n    }\n\n    mapping(uint256 => PaymentDetails) public payments;\n    uint256 private numPayments; // to track payment IDs\n\n    event PaymentInitiated(uint256 indexed paymentId, uint256 indexed jobId, uint256 indexed freelancerId, uint256 clientId, uint256 amount);\n    event PaymentCompleted(uint256 paymentId);\n    event PaymentPartiallyRefunded(uint256 paymentId);\n    event PaymentFullyRefunded(uint256 paymentId);\n\n    constructor(address _userContract, address _tokenContract) public {\n        owner = msg.sender;\n        userContract = User(_userContract); // corrected reference to User contract\n        tokenContract = WorkHiveToken(_tokenContract);\n    }\n\n    modifier onlyOwner() {\n        require(msg.sender == owner, \"You do not have permission to do this\");\n        _;\n    }\n    \n    function initiatePayment(uint256 clientId, uint256 freelancerId, uint256 jobId, uint256 amount) public {\n        require(userContract.isClient(clientId), \"Only clients can initiate payments\");\n        require(userContract.isFreelancer(freelancerId), \"Payments must be made to freelancers\");\n        \n        tokenContract.transferFrom(userContract.getAddressFromUserId(clientId), address(this), amount);\n\n        payments[numPayments] = PaymentDetails({\n            clientId: clientId,\n            freelancerId: freelancerId,\n            jobId: jobId,\n            amount: amount,\n            balance: amount,\n            status: PaymentStatus.PAYMENT_PENDING\n        });\n\n        emit PaymentInitiated(numPayments, jobId, freelancerId, clientId, amount);\n        numPayments++; // increment payment count\n    }\n\n    function completePayment(uint256 paymentId) public {\n        PaymentDetails storage payment = payments[paymentId];\n        require(payment.status == PaymentStatus.PAYMENT_PENDING, \"Payment is not in the correct status\");\n\n        tokenContract.transfer(userContract.getAddressFromUserId(payment.freelancerId), payment.amount);\n        payment.balance = 0;\n        payment.status = PaymentStatus.JOB_COMPLETE;\n\n        emit PaymentCompleted(paymentId);\n    }\n\n    function refundPayment(uint256 paymentId) public {\n        PaymentDetails storage payment = payments[paymentId];\n        require(payment.status == PaymentStatus.PAYMENT_PENDING, \"Payment is not in the correct status\");\n\n        tokenContract.transfer(userContract.getAddressFromUserId(payment.clientId), payment.balance);\n        payment.balance = 0;\n        payment.status = PaymentStatus.REFUNDED;\n\n        emit PaymentFullyRefunded(paymentId); // corrected event name\n    }\n\n    function getCurrentStatus(uint256 paymentId) public view returns (PaymentStatus) {\n        return payments[paymentId].status;\n    }\n\n    function getPaymentDetails(uint256 paymentId) public view returns (uint256, uint256, uint256, uint256, uint256, PaymentStatus) {\n        PaymentDetails storage payment = payments[paymentId];\n        return (\n            payment.clientId,\n            payment.freelancerId,\n            payment.jobId,\n            payment.amount,\n            payment.balance,\n            payment.status\n        );\n    }\n}\n",
  "sourcePath": "/Users/kordelia/nus/Y3S1/IS4302/IS4302-Freelancing/contracts/payment/Payment.sol",
  "compiler": {
    "name": "solc",
    "version": "0.5.17+commit.d19bba13.Emscripten.clang"
  },
  "schemaVersion": "3.4.16",
  "updatedAt": "2024-11-15T02:41:08.309Z",
  "networkType": "ethereum",
  "devdoc": {
    "methods": {}
  },
  "userdoc": {
    "methods": {}
  }
}