{
  "contractName": "ResumeReviews",
  "abi": [
    {
      "inputs": [
        {
          "internalType": "address",
          "name": "userAddress",
          "type": "address"
        }
      ],
      "payable": false,
      "stateMutability": "nonpayable",
      "type": "constructor"
    },
    {
      "anonymous": false,
      "inputs": [
        {
          "indexed": true,
          "internalType": "uint256",
          "name": "reviewerId",
          "type": "uint256"
        },
        {
          "indexed": true,
          "internalType": "uint256",
          "name": "revieweeId",
          "type": "uint256"
        },
        {
          "indexed": false,
          "internalType": "uint8",
          "name": "rating",
          "type": "uint8"
        }
      ],
      "name": "ReviewSubmitted",
      "type": "event"
    },
    {
      "anonymous": false,
      "inputs": [
        {
          "indexed": true,
          "internalType": "uint256",
          "name": "userId",
          "type": "uint256"
        },
        {
          "indexed": false,
          "internalType": "string",
          "name": "jobTitle",
          "type": "string"
        }
      ],
      "name": "WorkExperienceAdded",
      "type": "event"
    },
    {
      "constant": true,
      "inputs": [],
      "name": "userContract",
      "outputs": [
        {
          "internalType": "contract User",
          "name": "",
          "type": "address"
        }
      ],
      "payable": false,
      "stateMutability": "view",
      "type": "function"
    },
    {
      "constant": true,
      "inputs": [
        {
          "internalType": "uint256",
          "name": "",
          "type": "uint256"
        }
      ],
      "name": "users",
      "outputs": [
        {
          "internalType": "uint256",
          "name": "reputationScore",
          "type": "uint256"
        }
      ],
      "payable": false,
      "stateMutability": "view",
      "type": "function"
    },
    {
      "constant": false,
      "inputs": [
        {
          "internalType": "uint256",
          "name": "userId",
          "type": "uint256"
        },
        {
          "internalType": "string",
          "name": "jobTitle",
          "type": "string"
        },
        {
          "internalType": "string",
          "name": "description",
          "type": "string"
        },
        {
          "internalType": "uint256",
          "name": "startDate",
          "type": "uint256"
        },
        {
          "internalType": "uint256",
          "name": "endDate",
          "type": "uint256"
        },
        {
          "internalType": "string[]",
          "name": "skills",
          "type": "string[]"
        }
      ],
      "name": "addWorkExperience",
      "outputs": [],
      "payable": false,
      "stateMutability": "nonpayable",
      "type": "function"
    },
    {
      "constant": false,
      "inputs": [
        {
          "internalType": "uint256",
          "name": "reviewerId",
          "type": "uint256"
        },
        {
          "internalType": "uint256",
          "name": "revieweeId",
          "type": "uint256"
        },
        {
          "internalType": "uint8",
          "name": "rating",
          "type": "uint8"
        },
        {
          "internalType": "string",
          "name": "comment",
          "type": "string"
        }
      ],
      "name": "addReview",
      "outputs": [],
      "payable": false,
      "stateMutability": "nonpayable",
      "type": "function"
    },
    {
      "constant": true,
      "inputs": [
        {
          "internalType": "uint256",
          "name": "userId",
          "type": "uint256"
        }
      ],
      "name": "getWorkHistory",
      "outputs": [
        {
          "components": [
            {
              "internalType": "string",
              "name": "jobTitle",
              "type": "string"
            },
            {
              "internalType": "string",
              "name": "description",
              "type": "string"
            },
            {
              "internalType": "uint256",
              "name": "startDate",
              "type": "uint256"
            },
            {
              "internalType": "uint256",
              "name": "endDate",
              "type": "uint256"
            },
            {
              "internalType": "string[]",
              "name": "skills",
              "type": "string[]"
            }
          ],
          "internalType": "struct ResumeReviews.WorkExperience[]",
          "name": "",
          "type": "tuple[]"
        }
      ],
      "payable": false,
      "stateMutability": "view",
      "type": "function"
    },
    {
      "constant": true,
      "inputs": [
        {
          "internalType": "uint256",
          "name": "userId",
          "type": "uint256"
        }
      ],
      "name": "getReviews",
      "outputs": [
        {
          "components": [
            {
              "internalType": "address",
              "name": "reviewer",
              "type": "address"
            },
            {
              "internalType": "uint8",
              "name": "rating",
              "type": "uint8"
            },
            {
              "internalType": "string",
              "name": "comment",
              "type": "string"
            },
            {
              "internalType": "uint256",
              "name": "timestamp",
              "type": "uint256"
            }
          ],
          "internalType": "struct ResumeReviews.Review[]",
          "name": "",
          "type": "tuple[]"
        }
      ],
      "payable": false,
      "stateMutability": "view",
      "type": "function"
    },
    {
      "constant": true,
      "inputs": [
        {
          "internalType": "uint256",
          "name": "userId",
          "type": "uint256"
        }
      ],
      "name": "getReputationScore",
      "outputs": [
        {
          "internalType": "uint256",
          "name": "",
          "type": "uint256"
        }
      ],
      "payable": false,
      "stateMutability": "view",
      "type": "function"
    }
  ],
  "bytecode": "0x60806040523480156200001157600080fd5b5060405162001ede38038062001ede833981810160405262000037919081019062000095565b806000806101000a81548173ffffffffffffffffffffffffffffffffffffffff021916908373ffffffffffffffffffffffffffffffffffffffff160217905550506200010f565b6000815190506200008f81620000f5565b92915050565b600060208284031215620000a857600080fd5b6000620000b8848285016200007e565b91505092915050565b6000620000ce82620000d5565b9050919050565b600073ffffffffffffffffffffffffffffffffffffffff82169050919050565b6200010081620000c1565b81146200010c57600080fd5b50565b611dbf806200011f6000396000f3fe608060405234801561001057600080fd5b506004361061007d5760003560e01c80637580419b1161005b5780637580419b146101005780639d4a22551461011c578063a813ebc81461014c578063bd5bcb0a146101685761007d565b8063365b98b2146100825780633ba25009146100b25780635000596b146100e2575b600080fd5b61009c600480360361009791908101906112da565b610198565b6040516100a99190611a33565b60405180910390f35b6100cc60048036036100c791908101906112da565b6101b6565b6040516100d99190611934565b60405180910390f35b6100ea61046c565b6040516100f79190611956565b60405180910390f35b61011a60048036036101159190810190611303565b610491565b005b610136600480360361013191908101906112da565b6107b6565b6040516101439190611912565b60405180910390f35b610166600480360361016191908101906113d4565b61094a565b005b610182600480360361017d91908101906112da565b610d04565b60405161018f9190611a33565b60405180910390f35b60016020528060005260406000206000915090508060020154905081565b606060016000838152602001908152602001600020600001805480602002602001604051908101604052809291908181526020016000905b8282101561046157838290600052602060002090600502016040518060a0016040529081600082018054600181600116156101000203166002900480601f0160208091040260200160405190810160405280929190818152602001828054600181600116156101000203166002900480156102aa5780601f1061027f576101008083540402835291602001916102aa565b820191906000526020600020905b81548152906001019060200180831161028d57829003601f168201915b50505050508152602001600182018054600181600116156101000203166002900480601f01602080910402602001604051908101604052809291908181526020018280546001816001161561010002031660029004801561034c5780601f106103215761010080835404028352916020019161034c565b820191906000526020600020905b81548152906001019060200180831161032f57829003601f168201915b50505050508152602001600282015481526020016003820154815260200160048201805480602002602001604051908101604052809291908181526020016000905b8282101561044a578382906000526020600020018054600181600116156101000203166002900480601f0160208091040260200160405190810160405280929190818152602001828054600181600116156101000203166002900480156104365780601f1061040b57610100808354040283529160200191610436565b820191906000526020600020905b81548152906001019060200180831161041957829003601f168201915b50505050508152602001906001019061038e565b5050505081525050815260200190600101906101ee565b505050509050919050565b6000809054906101000a900473ffffffffffffffffffffffffffffffffffffffff1681565b6000809054906101000a900473ffffffffffffffffffffffffffffffffffffffff1673ffffffffffffffffffffffffffffffffffffffff1663cfc70ae28760006040518363ffffffff1660e01b81526004016104ee929190611a4e565b60206040518083038186803b15801561050657600080fd5b505afa15801561051a573d6000803e3d6000fd5b505050506040513d601f19601f8201168201806040525061053e91908101906112b1565b61057d576040517f08c379a000000000000000000000000000000000000000000000000000000000815260040161057490611993565b60405180910390fd5b3373ffffffffffffffffffffffffffffffffffffffff166000809054906101000a900473ffffffffffffffffffffffffffffffffffffffff1673ffffffffffffffffffffffffffffffffffffffff1663049aae90886040518263ffffffff1660e01b81526004016105ee9190611a33565b60206040518083038186803b15801561060657600080fd5b505afa15801561061a573d6000803e3d6000fd5b505050506040513d601f19601f8201168201806040525061063e9190810190611288565b73ffffffffffffffffffffffffffffffffffffffff1614610694576040517f08c379a000000000000000000000000000000000000000000000000000000000815260040161068b90611a13565b60405180910390fd5b61069c610f2f565b6040518060a001604052808781526020018681526020018581526020018481526020018381525090506001600088815260200190815260200160002060000181908060018154018082558091505090600182039060005260206000209060050201600090919290919091506000820151816000019080519060200190610723929190610f5e565b506020820151816001019080519060200190610740929190610f5e565b5060408201518160020155606082015181600301556080820151816004019080519060200190610771929190610fde565b50505050867ff7f3087bb1383e541c976794afc115dacefd4b46da9eda1f4be8f7fe044e5413876040516107a59190611971565b60405180910390a250505050505050565b606060016000838152602001908152602001600020600101805480602002602001604051908101604052809291908181526020016000905b8282101561093f57838290600052602060002090600302016040518060800160405290816000820160009054906101000a900473ffffffffffffffffffffffffffffffffffffffff1673ffffffffffffffffffffffffffffffffffffffff1673ffffffffffffffffffffffffffffffffffffffff1681526020016000820160149054906101000a900460ff1660ff1660ff168152602001600182018054600181600116156101000203166002900480601f01602080910402602001604051908101604052809291908181526020018280546001816001161561010002031660029004801561091d5780601f106108f25761010080835404028352916020019161091d565b820191906000526020600020905b81548152906001019060200180831161090057829003601f168201915b50505050508152602001600282015481525050815260200190600101906107ee565b505050509050919050565b60008260ff16118015610961575060058260ff1611155b6109a0576040517f08c379a0000000000000000000000000000000000000000000000000000000008152600401610997906119b3565b60405180910390fd5b6000809054906101000a900473ffffffffffffffffffffffffffffffffffffffff1673ffffffffffffffffffffffffffffffffffffffff1663cfc70ae28560016040518363ffffffff1660e01b81526004016109fd929190611a4e565b60206040518083038186803b158015610a1557600080fd5b505afa158015610a29573d6000803e3d6000fd5b505050506040513d601f19601f82011682018060405250610a4d91908101906112b1565b610a8c576040517f08c379a0000000000000000000000000000000000000000000000000000000008152600401610a83906119d3565b60405180910390fd5b3373ffffffffffffffffffffffffffffffffffffffff166000809054906101000a900473ffffffffffffffffffffffffffffffffffffffff1673ffffffffffffffffffffffffffffffffffffffff1663049aae90866040518263ffffffff1660e01b8152600401610afd9190611a33565b60206040518083038186803b158015610b1557600080fd5b505afa158015610b29573d6000803e3d6000fd5b505050506040513d601f19601f82011682018060405250610b4d9190810190611288565b73ffffffffffffffffffffffffffffffffffffffff1614610ba3576040517f08c379a0000000000000000000000000000000000000000000000000000000008152600401610b9a906119f3565b60405180910390fd5b610bab61103e565b60405180608001604052803373ffffffffffffffffffffffffffffffffffffffff1681526020018460ff16815260200183815260200142815250905060016000858152602001908152602001600020600101819080600181540180825580915050906001820390600052602060002090600302016000909192909190915060008201518160000160006101000a81548173ffffffffffffffffffffffffffffffffffffffff021916908373ffffffffffffffffffffffffffffffffffffffff16021790555060208201518160000160146101000a81548160ff021916908360ff1602179055506040820151816001019080519060200190610cad929190610f5e565b5060608201518160020155505050610cc484610d24565b83857faed831eb10e3fb6d2e41f45b25c6cc91bb2538173e7eea06fe90f845ce571ba885604051610cf59190611a77565b60405180910390a35050505050565b600060016000838152602001908152602001600020600201549050919050565b6000809050606060016000848152602001908152602001600020600101805480602002602001604051908101604052809291908181526020016000905b82821015610eb257838290600052602060002090600302016040518060800160405290816000820160009054906101000a900473ffffffffffffffffffffffffffffffffffffffff1673ffffffffffffffffffffffffffffffffffffffff1673ffffffffffffffffffffffffffffffffffffffff1681526020016000820160149054906101000a900460ff1660ff1660ff168152602001600182018054600181600116156101000203166002900480601f016020809104026020016040519081016040528092919081815260200182805460018160011615610100020316600290048015610e905780601f10610e6557610100808354040283529160200191610e90565b820191906000526020600020905b815481529060010190602001808311610e7357829003601f168201915b5050505050815260200160028201548152505081526020019060010190610d61565b50505050905060008090505b8151811015610ef357818181518110610ed357fe5b60200260200101516020015160ff16830192508080600101915050610ebe565b506000815111610f04576000610f10565b80518281610f0e57fe5b045b6001600085815260200190815260200160002060020181905550505050565b6040518060a0016040528060608152602001606081526020016000815260200160008152602001606081525090565b828054600181600116156101000203166002900490600052602060002090601f016020900481019282601f10610f9f57805160ff1916838001178555610fcd565b82800160010185558215610fcd579182015b82811115610fcc578251825591602001919060010190610fb1565b5b509050610fda919061107f565b5090565b82805482825590600052602060002090810192821561102d579160200282015b8281111561102c57825182908051906020019061101c929190610f5e565b5091602001919060010190610ffe565b5b50905061103a91906110a4565b5090565b6040518060800160405280600073ffffffffffffffffffffffffffffffffffffffff168152602001600060ff16815260200160608152602001600081525090565b6110a191905b8082111561109d576000816000905550600101611085565b5090565b90565b6110cd91905b808211156110c957600081816110c091906110d0565b506001016110aa565b5090565b90565b50805460018160011615610100020316600290046000825580601f106110f65750611115565b601f016020900490600052602060002090810190611114919061107f565b5b50565b60008151905061112781611d20565b92915050565b600082601f83011261113e57600080fd5b813561115161114c82611abf565b611a92565b9150818183526020840193506020810190508360005b83811015611197578135860161117d88826111b6565b845260208401935060208301925050600181019050611167565b5050505092915050565b6000815190506111b081611d37565b92915050565b600082601f8301126111c757600080fd5b81356111da6111d582611ae7565b611a92565b915080825260208301602083018583830111156111f657600080fd5b611201838284611cc0565b50505092915050565b600082601f83011261121b57600080fd5b813561122e61122982611b13565b611a92565b9150808252602083016020830185838301111561124a57600080fd5b611255838284611cc0565b50505092915050565b60008135905061126d81611d4e565b92915050565b60008135905061128281611d65565b92915050565b60006020828403121561129a57600080fd5b60006112a884828501611118565b91505092915050565b6000602082840312156112c357600080fd5b60006112d1848285016111a1565b91505092915050565b6000602082840312156112ec57600080fd5b60006112fa8482850161125e565b91505092915050565b60008060008060008060c0878903121561131c57600080fd5b600061132a89828a0161125e565b965050602087013567ffffffffffffffff81111561134757600080fd5b61135389828a0161120a565b955050604087013567ffffffffffffffff81111561137057600080fd5b61137c89828a0161120a565b945050606061138d89828a0161125e565b935050608061139e89828a0161125e565b92505060a087013567ffffffffffffffff8111156113bb57600080fd5b6113c789828a0161112d565b9150509295509295509295565b600080600080608085870312156113ea57600080fd5b60006113f88782880161125e565b94505060206114098782880161125e565b935050604061141a87828801611273565b925050606085013567ffffffffffffffff81111561143757600080fd5b6114438782880161120a565b91505092959194509250565b600061145b8383611650565b905092915050565b600061146f83836117ef565b905092915050565b60006114838383611852565b905092915050565b61149481611c22565b82525050565b60006114a582611b6f565b6114af8185611bcd565b9350836020820285016114c185611b3f565b8060005b858110156114fd57848403895281516114de858261144f565b94506114e983611ba6565b925060208a019950506001810190506114c5565b50829750879550505050505092915050565b600061151a82611b7a565b6115248185611bde565b93508360208202850161153685611b4f565b8060005b8581101561157257848403895281516115538582611463565b945061155e83611bb3565b925060208a0199505060018101905061153a565b50829750879550505050505092915050565b600061158f82611b85565b6115998185611bef565b9350836020820285016115ab85611b5f565b8060005b858110156115e757848403895281516115c88582611477565b94506115d383611bc0565b925060208a019950506001810190506115af565b50829750879550505050505092915050565b61160281611c8a565b82525050565b61161181611cae565b82525050565b600061162282611b9b565b61162c8185611c11565b935061163c818560208601611ccf565b61164581611d02565b840191505092915050565b600061165b82611b90565b6116658185611c00565b9350611675818560208601611ccf565b61167e81611d02565b840191505092915050565b6000611696602983611c11565b91507f4f6e6c7920667265656c616e636572732063616e2061646420776f726b20657860008301527f70657269656e63652e00000000000000000000000000000000000000000000006020830152604082019050919050565b60006116fc601e83611c11565b91507f526174696e67206d757374206265206265747765656e203120616e64203500006000830152602082019050919050565b600061173c601d83611c11565b91507f4f6e6c7920636c69656e74732063616e2061646420726576696577732e0000006000830152602082019050919050565b600061177c601383611c11565b91507f556e617574686f72697a656420616363657373000000000000000000000000006000830152602082019050919050565b60006117bc601483611c11565b91507f556e617574686f72697a6564206163636573732e0000000000000000000000006000830152602082019050919050565b6000608083016000830151611807600086018261148b565b50602083015161181a60208601826118f4565b50604083015184820360408601526118328282611650565b915050606083015161184760608601826118d6565b508091505092915050565b600060a083016000830151848203600086015261186f8282611650565b915050602083015184820360208601526118898282611650565b915050604083015161189e60408601826118d6565b5060608301516118b160608601826118d6565b50608083015184820360808601526118c9828261149a565b9150508091505092915050565b6118df81611c73565b82525050565b6118ee81611c73565b82525050565b6118fd81611c7d565b82525050565b61190c81611c7d565b82525050565b6000602082019050818103600083015261192c818461150f565b905092915050565b6000602082019050818103600083015261194e8184611584565b905092915050565b600060208201905061196b60008301846115f9565b92915050565b6000602082019050818103600083015261198b8184611617565b905092915050565b600060208201905081810360008301526119ac81611689565b9050919050565b600060208201905081810360008301526119cc816116ef565b9050919050565b600060208201905081810360008301526119ec8161172f565b9050919050565b60006020820190508181036000830152611a0c8161176f565b9050919050565b60006020820190508181036000830152611a2c816117af565b9050919050565b6000602082019050611a4860008301846118e5565b92915050565b6000604082019050611a6360008301856118e5565b611a706020830184611608565b9392505050565b6000602082019050611a8c6000830184611903565b92915050565b6000604051905081810181811067ffffffffffffffff82111715611ab557600080fd5b8060405250919050565b600067ffffffffffffffff821115611ad657600080fd5b602082029050602081019050919050565b600067ffffffffffffffff821115611afe57600080fd5b601f19601f8301169050602081019050919050565b600067ffffffffffffffff821115611b2a57600080fd5b601f19601f8301169050602081019050919050565b6000819050602082019050919050565b6000819050602082019050919050565b6000819050602082019050919050565b600081519050919050565b600081519050919050565b600081519050919050565b600081519050919050565b600081519050919050565b6000602082019050919050565b6000602082019050919050565b6000602082019050919050565b600082825260208201905092915050565b600082825260208201905092915050565b600082825260208201905092915050565b600082825260208201905092915050565b600082825260208201905092915050565b6000611c2d82611c53565b9050919050565b60008115159050919050565b6000819050611c4e82611d13565b919050565b600073ffffffffffffffffffffffffffffffffffffffff82169050919050565b6000819050919050565b600060ff82169050919050565b6000611c9582611c9c565b9050919050565b6000611ca782611c53565b9050919050565b6000611cb982611c40565b9050919050565b82818337600083830152505050565b60005b83811015611ced578082015181840152602081019050611cd2565b83811115611cfc576000848401525b50505050565b6000601f19601f8301169050919050565b60038110611d1d57fe5b50565b611d2981611c22565b8114611d3457600080fd5b50565b611d4081611c34565b8114611d4b57600080fd5b50565b611d5781611c73565b8114611d6257600080fd5b50565b611d6e81611c7d565b8114611d7957600080fd5b5056fea365627a7a723158208b44090f96a11cb0a3af6badf07355459423fb19d62de5c0109526a8873548ed6c6578706572696d656e74616cf564736f6c63430005110040",
  "source": "// SPDX-License-Identifier: MIT\npragma solidity ^0.5.0;\npragma experimental ABIEncoderV2;\n\nimport \"./User.sol\";\n\ncontract ResumeReviews {\n    User public userContract;\n\n    struct WorkExperience {\n        string jobTitle;\n        string description;\n        uint256 startDate;\n        uint256 endDate;\n        string[] skills;\n    }\n\n    struct Review {\n        address reviewer;\n        uint8 rating;\n        string comment;\n        uint256 timestamp;\n    }\n\n    struct UserProfile {\n        WorkExperience[] workHistory;\n        Review[] reviews;\n        uint256 reputationScore;\n    }\n\n    mapping(uint256 => UserProfile) public users; // Changed to use userId instead of address\n\n    event WorkExperienceAdded(uint256 indexed userId, string jobTitle); // Changed to use userId instead of address\n    event ReviewSubmitted(uint256 indexed reviewerId, uint256 indexed revieweeId, uint8 rating); // Changed to use userId instead of address\n\n    constructor(address userAddress) public {\n        userContract = User(userAddress);  // Initialize the User contract\n    }\n\n    function addWorkExperience(\n        uint256 userId,\n        string memory jobTitle,\n        string memory description,\n        uint256 startDate,\n        uint256 endDate,\n        string[] memory skills\n    ) public {\n        require(userContract.isUserType(userId, User.UserType.Freelancer), \"Only freelancers can add work experience.\");\n        require(userContract.getAddressFromUserId(userId) == msg.sender, \"Unauthorized access.\");\n\n        WorkExperience memory newExperience = WorkExperience({\n            jobTitle: jobTitle,\n            description: description,\n            startDate: startDate,\n            endDate: endDate,\n            skills: skills\n        });\n\n        users[userId].workHistory.push(newExperience);\n        emit WorkExperienceAdded(userId, jobTitle); // Pass userId instead of msg.sender\n    }\n\n    function addReview(\n        uint256 reviewerId,\n        uint256 revieweeId,\n        uint8 rating,\n        string memory comment\n    ) public {\n        require(rating > 0 && rating <= 5, \"Rating must be between 1 and 5\");\n        require(userContract.isUserType(reviewerId, User.UserType.Client), \"Only clients can add reviews.\");\n        require(userContract.getAddressFromUserId(reviewerId) == msg.sender, \"Unauthorized access\");\n\n        Review memory newReview = Review({\n            reviewer: msg.sender,\n            rating: rating,\n            comment: comment,\n            timestamp: block.timestamp\n        });\n\n        users[revieweeId].reviews.push(newReview);\n        updateReputation(revieweeId);\n\n        emit ReviewSubmitted(reviewerId, revieweeId, rating);\n    }\n\n    function updateReputation(uint256 userId) internal {\n        uint256 totalScore = 0;\n        Review[] memory userReviews = users[userId].reviews;\n\n        for (uint256 i = 0; i < userReviews.length; i++) {\n            totalScore += userReviews[i].rating;\n        }\n\n        users[userId].reputationScore = userReviews.length > 0\n            ? totalScore / userReviews.length\n            : 0;\n    }\n\n    function getWorkHistory(\n        uint256 userId\n    ) public view returns (WorkExperience[] memory) {\n        return users[userId].workHistory;\n    }\n\n    function getReviews(uint256 userId) public view returns (Review[] memory) {\n        return users[userId].reviews;\n    }\n\n    function getReputationScore(uint256 userId) public view returns (uint256) {\n        return users[userId].reputationScore;\n    }\n}\n",
  "sourcePath": "/Users/kordelia/nus/Y3S1/IS4302/IS4302-Freelancing/contracts/ResumeReviews.sol",
  "compiler": {
    "name": "solc",
    "version": "0.5.17+commit.d19bba13.Emscripten.clang"
  },
  "schemaVersion": "3.4.16",
  "updatedAt": "2024-11-15T02:41:08.311Z",
  "networkType": "ethereum",
  "devdoc": {
    "methods": {}
  },
  "userdoc": {
    "methods": {}
  }
}