{
  "contractName": "User",
  "abi": [
    {
      "inputs": [],
      "payable": false,
      "stateMutability": "nonpayable",
      "type": "constructor"
    },
    {
      "anonymous": false,
      "inputs": [
        {
          "indexed": false,
          "internalType": "uint256",
          "name": "userId",
          "type": "uint256"
        },
        {
          "indexed": false,
          "internalType": "enum User.UserType",
          "name": "userType",
          "type": "uint8"
        }
      ],
      "name": "NewUserRegistered",
      "type": "event"
    },
    {
      "anonymous": false,
      "inputs": [
        {
          "indexed": false,
          "internalType": "uint256",
          "name": "userId",
          "type": "uint256"
        }
      ],
      "name": "UserProfileUpdated",
      "type": "event"
    },
    {
      "constant": true,
      "inputs": [],
      "name": "owner",
      "outputs": [
        {
          "internalType": "address",
          "name": "",
          "type": "address"
        }
      ],
      "payable": false,
      "stateMutability": "view",
      "type": "function"
    },
    {
      "constant": false,
      "inputs": [
        {
          "internalType": "enum User.UserType",
          "name": "userType",
          "type": "uint8"
        },
        {
          "internalType": "string",
          "name": "username",
          "type": "string"
        },
        {
          "internalType": "string",
          "name": "name",
          "type": "string"
        },
        {
          "internalType": "string",
          "name": "email",
          "type": "string"
        }
      ],
      "name": "register",
      "outputs": [
        {
          "internalType": "uint256",
          "name": "",
          "type": "uint256"
        }
      ],
      "payable": false,
      "stateMutability": "nonpayable",
      "type": "function"
    },
    {
      "constant": false,
      "inputs": [
        {
          "internalType": "uint256",
          "name": "userId",
          "type": "uint256"
        },
        {
          "internalType": "string",
          "name": "name",
          "type": "string"
        },
        {
          "internalType": "string",
          "name": "email",
          "type": "string"
        }
      ],
      "name": "updateUserDetails",
      "outputs": [],
      "payable": false,
      "stateMutability": "nonpayable",
      "type": "function"
    },
    {
      "constant": true,
      "inputs": [
        {
          "internalType": "uint256",
          "name": "userId",
          "type": "uint256"
        }
      ],
      "name": "getUserDetails",
      "outputs": [
        {
          "internalType": "enum User.UserType",
          "name": "userType",
          "type": "uint8"
        },
        {
          "internalType": "string",
          "name": "username",
          "type": "string"
        },
        {
          "internalType": "string",
          "name": "name",
          "type": "string"
        },
        {
          "internalType": "string",
          "name": "email",
          "type": "string"
        },
        {
          "internalType": "uint256",
          "name": "rating",
          "type": "uint256"
        }
      ],
      "payable": false,
      "stateMutability": "view",
      "type": "function"
    },
    {
      "constant": true,
      "inputs": [
        {
          "internalType": "address",
          "name": "userAddress",
          "type": "address"
        }
      ],
      "name": "isUser",
      "outputs": [
        {
          "internalType": "bool",
          "name": "",
          "type": "bool"
        }
      ],
      "payable": false,
      "stateMutability": "view",
      "type": "function"
    },
    {
      "constant": true,
      "inputs": [
        {
          "internalType": "uint256",
          "name": "userId",
          "type": "uint256"
        },
        {
          "internalType": "enum User.UserType",
          "name": "userType",
          "type": "uint8"
        }
      ],
      "name": "isUserType",
      "outputs": [
        {
          "internalType": "bool",
          "name": "",
          "type": "bool"
        }
      ],
      "payable": false,
      "stateMutability": "view",
      "type": "function"
    },
    {
      "constant": false,
      "inputs": [
        {
          "internalType": "address",
          "name": "newOwner",
          "type": "address"
        }
      ],
      "name": "transferOwnership",
      "outputs": [],
      "payable": false,
      "stateMutability": "nonpayable",
      "type": "function"
    },
    {
      "constant": true,
      "inputs": [
        {
          "internalType": "uint256",
          "name": "userId",
          "type": "uint256"
        }
      ],
      "name": "getAddressFromUserId",
      "outputs": [
        {
          "internalType": "address",
          "name": "",
          "type": "address"
        }
      ],
      "payable": false,
      "stateMutability": "view",
      "type": "function"
    },
    {
      "constant": true,
      "inputs": [
        {
          "internalType": "uint256",
          "name": "userId",
          "type": "uint256"
        }
      ],
      "name": "isClient",
      "outputs": [
        {
          "internalType": "bool",
          "name": "",
          "type": "bool"
        }
      ],
      "payable": false,
      "stateMutability": "view",
      "type": "function"
    },
    {
      "constant": true,
      "inputs": [
        {
          "internalType": "uint256",
          "name": "userId",
          "type": "uint256"
        }
      ],
      "name": "isFreelancer",
      "outputs": [
        {
          "internalType": "bool",
          "name": "",
          "type": "bool"
        }
      ],
      "payable": false,
      "stateMutability": "view",
      "type": "function"
    }
  ],
  "bytecode": "0x608060405234801561001057600080fd5b50336000806101000a81548173ffffffffffffffffffffffffffffffffffffffff021916908373ffffffffffffffffffffffffffffffffffffffff1602179055506117a3806100606000396000f3fe608060405234801561001057600080fd5b506004361061009e5760003560e01c80636f049e51116100665780636f049e511461066e5780638da5cb5b146106b4578063bce613f3146106fe578063cfc70ae214610744578063f2fde38b146107975761009e565b8063049aae90146100a35780631c1a9f7b1461011157806330ac3e07146102ac578063410c222b146104085780634209fff114610612575b600080fd5b6100cf600480360360208110156100b957600080fd5b81019080803590602001909291905050506107db565b604051808273ffffffffffffffffffffffffffffffffffffffff1673ffffffffffffffffffffffffffffffffffffffff16815260200191505060405180910390f35b61013d6004803603602081101561012757600080fd5b810190808035906020019092919050505061088f565b6040518086600281111561014d57fe5b60ff168152602001806020018060200180602001858152602001848103845288818151815260200191508051906020019080838360005b8381101561019f578082015181840152602081019050610184565b50505050905090810190601f1680156101cc5780820380516001836020036101000a031916815260200191505b50848103835287818151815260200191508051906020019080838360005b838110156102055780820151818401526020810190506101ea565b50505050905090810190601f1680156102325780820380516001836020036101000a031916815260200191505b50848103825286818151815260200191508051906020019080838360005b8381101561026b578082015181840152602081019050610250565b50505050905090810190601f1680156102985780820380516001836020036101000a031916815260200191505b509850505050505050505060405180910390f35b610406600480360360608110156102c257600080fd5b8101908080359060200190929190803590602001906401000000008111156102e957600080fd5b8201836020820111156102fb57600080fd5b8035906020019184600183028401116401000000008311171561031d57600080fd5b91908080601f016020809104026020016040519081016040528093929190818152602001838380828437600081840152601f19601f8201169050808301925050505050505091929192908035906020019064010000000081111561038057600080fd5b82018360208201111561039257600080fd5b803590602001918460018302840111640100000000831117156103b457600080fd5b91908080601f016020809104026020016040519081016040528093929190818152602001838380828437600081840152601f19601f820116905080830192505050505050509192919290505050610b31565b005b6105fc6004803603608081101561041e57600080fd5b81019080803560ff1690602001909291908035906020019064010000000081111561044857600080fd5b82018360208201111561045a57600080fd5b8035906020019184600183028401116401000000008311171561047c57600080fd5b91908080601f016020809104026020016040519081016040528093929190818152602001838380828437600081840152601f19601f820116905080830192505050505050509192919290803590602001906401000000008111156104df57600080fd5b8201836020820111156104f157600080fd5b8035906020019184600183028401116401000000008311171561051357600080fd5b91908080601f016020809104026020016040519081016040528093929190818152602001838380828437600081840152601f19601f8201169050808301925050505050505091929192908035906020019064010000000081111561057657600080fd5b82018360208201111561058857600080fd5b803590602001918460018302840111640100000000831117156105aa57600080fd5b91908080601f016020809104026020016040519081016040528093929190818152602001838380828437600081840152601f19601f820116905080830192505050505050509192919290505050610c7a565b6040518082815260200191505060405180910390f35b6106546004803603602081101561062857600080fd5b81019080803573ffffffffffffffffffffffffffffffffffffffff16906020019092919050505061107b565b604051808215151515815260200191505060405180910390f35b61069a6004803603602081101561068457600080fd5b81019080803590602001909291905050506111b2565b604051808215151515815260200191505060405180910390f35b6106bc61126f565b604051808273ffffffffffffffffffffffffffffffffffffffff1673ffffffffffffffffffffffffffffffffffffffff16815260200191505060405180910390f35b61072a6004803603602081101561071457600080fd5b8101908080359060200190929190505050611294565b604051808215151515815260200191505060405180910390f35b61077d6004803603604081101561075a57600080fd5b8101908080359060200190929190803560ff169060200190929190505050611351565b604051808215151515815260200191505060405180910390f35b6107d9600480360360208110156107ad57600080fd5b81019080803573ffffffffffffffffffffffffffffffffffffffff16906020019092919050505061140e565b005b60006005548210610854576040517f08c379a000000000000000000000000000000000000000000000000000000000815260040180806020018281038252600f8152602001807f496e76616c69642075736572204944000000000000000000000000000000000081525060200191505060405180910390fd5b6003600083815260200190815260200160002060009054906101000a900473ffffffffffffffffffffffffffffffffffffffff169050919050565b600060608060606000600554861061090f576040517f08c379a000000000000000000000000000000000000000000000000000000000815260040180806020018281038252600f8152602001807f496e76616c69642075736572204944000000000000000000000000000000000081525060200191505060405180910390fd5b60006001600088815260200190815260200160002090508060000160009054906101000a900460ff168160010182600201836003018460040154838054600181600116156101000203166002900480601f0160208091040260200160405190810160405280929190818152602001828054600181600116156101000203166002900480156109de5780601f106109b3576101008083540402835291602001916109de565b820191906000526020600020905b8154815290600101906020018083116109c157829003601f168201915b50505050509350828054600181600116156101000203166002900480601f016020809104026020016040519081016040528092919081815260200182805460018160011615610100020316600290048015610a7a5780601f10610a4f57610100808354040283529160200191610a7a565b820191906000526020600020905b815481529060010190602001808311610a5d57829003601f168201915b50505050509250818054600181600116156101000203166002900480601f016020809104026020016040519081016040528092919081815260200182805460018160011615610100020316600290048015610b165780601f10610aeb57610100808354040283529160200191610b16565b820191906000526020600020905b815481529060010190602001808311610af957829003601f168201915b50505050509150955095509550955095505091939590929450565b3373ffffffffffffffffffffffffffffffffffffffff166003600085815260200190815260200160002060009054906101000a900473ffffffffffffffffffffffffffffffffffffffff1673ffffffffffffffffffffffffffffffffffffffff1614610be8576040517f08c379a00000000000000000000000000000000000000000000000000000000081526004018080602001828103825260278152602001806117166027913960400191505060405180910390fd5b81600160008581526020019081526020016000206002019080519060200190610c129291906115b6565b5080600160008581526020019081526020016000206003019080519060200190610c3d9291906115b6565b507fa369c04156aa17624ed5cb471808855217c6d533593066020104a89b40792138836040518082815260200191505060405180910390a1505050565b6000806004856040518082805190602001908083835b60208310610cb35780518252602082019150602081019050602083039250610c90565b6001836020036101000a03801982511681845116808217855250505050505090500191505090815260200160405180910390205414610d5a576040517f08c379a00000000000000000000000000000000000000000000000000000000081526004018080602001828103825260188152602001807f557365726e616d6520616c7265616479206578697374732e000000000000000081525060200191505060405180910390fd5b6000600260003373ffffffffffffffffffffffffffffffffffffffff1673ffffffffffffffffffffffffffffffffffffffff1681526020019081526020016000206000876002811115610da957fe5b81526020019081526020016000205414610e0e576040517f08c379a000000000000000000000000000000000000000000000000000000000815260040180806020018281038252603281526020018061173d6032913960400191505060405180910390fd5b610e16611636565b6040518060a00160405280876002811115610e2d57fe5b815260200186815260200185815260200184815260200160008152509050600060056000815480929190600101919050559050816001600083815260200190815260200160002060008201518160000160006101000a81548160ff02191690836002811115610e9857fe5b02179055506020820151816001019080519060200190610eb9929190611670565b506040820151816002019080519060200190610ed6929190611670565b506060820151816003019080519060200190610ef3929190611670565b506080820151816004015590505080600260003373ffffffffffffffffffffffffffffffffffffffff1673ffffffffffffffffffffffffffffffffffffffff1681526020019081526020016000206000896002811115610f4f57fe5b815260200190815260200160002081905550336003600083815260200190815260200160002060006101000a81548173ffffffffffffffffffffffffffffffffffffffff021916908373ffffffffffffffffffffffffffffffffffffffff160217905550806004876040518082805190602001908083835b60208310610fea5780518252602082019150602081019050602083039250610fc7565b6001836020036101000a0380198251168184511680821785525050505050509050019150509081526020016040518091039020819055507fd4299da132a77e72466b197b434c4e01655cb5a084d79521bf0664a9e3a79e2081886040518083815260200182600281111561105a57fe5b60ff1681526020019250505060405180910390a18092505050949350505050565b600080600260008473ffffffffffffffffffffffffffffffffffffffff1673ffffffffffffffffffffffffffffffffffffffff16815260200190815260200160002060008060028111156110cb57fe5b81526020019081526020016000205414158061114457506000600260008473ffffffffffffffffffffffffffffffffffffffff1673ffffffffffffffffffffffffffffffffffffffff16815260200190815260200160002060006001600281111561113257fe5b81526020019081526020016000205414155b806111ab57506000600260008473ffffffffffffffffffffffffffffffffffffffff1673ffffffffffffffffffffffffffffffffffffffff168152602001908152602001600020600060028081111561119957fe5b81526020019081526020016000205414155b9050919050565b6000600554821061122b576040517f08c379a000000000000000000000000000000000000000000000000000000000815260040180806020018281038252600f8152602001807f496e76616c69642075736572204944000000000000000000000000000000000081525060200191505060405180910390fd5b6000600281111561123857fe5b6001600084815260200190815260200160002060000160009054906101000a900460ff16600281111561126757fe5b149050919050565b6000809054906101000a900473ffffffffffffffffffffffffffffffffffffffff1681565b6000600554821061130d576040517f08c379a000000000000000000000000000000000000000000000000000000000815260040180806020018281038252600f8152602001807f496e76616c69642075736572204944000000000000000000000000000000000081525060200191505060405180910390fd5b6001600281111561131a57fe5b6001600084815260200190815260200160002060000160009054906101000a900460ff16600281111561134957fe5b149050919050565b600060055483106113ca576040517f08c379a000000000000000000000000000000000000000000000000000000000815260040180806020018281038252600f8152602001807f496e76616c69642075736572204944000000000000000000000000000000000081525060200191505060405180910390fd5b8160028111156113d657fe5b6001600085815260200190815260200160002060000160009054906101000a900460ff16600281111561140557fe5b14905092915050565b6000809054906101000a900473ffffffffffffffffffffffffffffffffffffffff1673ffffffffffffffffffffffffffffffffffffffff163373ffffffffffffffffffffffffffffffffffffffff16146114d0576040517f08c379a00000000000000000000000000000000000000000000000000000000081526004018080602001828103825260208152602001807f43616c6c6572206973206e6f742074686520636f6e7472616374206f776e657281525060200191505060405180910390fd5b600073ffffffffffffffffffffffffffffffffffffffff168173ffffffffffffffffffffffffffffffffffffffff161415611573576040517f08c379a000000000000000000000000000000000000000000000000000000000815260040180806020018281038252601d8152602001807f4e6577206f776e657220697320746865207a65726f206164647265737300000081525060200191505060405180910390fd5b806000806101000a81548173ffffffffffffffffffffffffffffffffffffffff021916908373ffffffffffffffffffffffffffffffffffffffff16021790555050565b828054600181600116156101000203166002900490600052602060002090601f016020900481019282601f106115f757805160ff1916838001178555611625565b82800160010185558215611625579182015b82811115611624578251825591602001919060010190611609565b5b50905061163291906116f0565b5090565b6040518060a001604052806000600281111561164e57fe5b8152602001606081526020016060815260200160608152602001600081525090565b828054600181600116156101000203166002900490600052602060002090601f016020900481019282601f106116b157805160ff19168380011785556116df565b828001600101855582156116df579182015b828111156116de5782518255916020019190600101906116c3565b5b5090506116ec91906116f0565b5090565b61171291905b8082111561170e5760008160009055506001016116f6565b5090565b9056fe4f6e6c792074686520757365722063616e207570646174652074686569722064657461696c732e55736572206f662074686973207479706520616c72656164792065786973747320666f72207468697320616464726573732ea265627a7a72315820df4d5da3b58e63db57eaab2de0457ba9c8ee90bc22146f22bab038800222424764736f6c63430005110032",
  "source": "pragma solidity ^0.5.0;\r\n\r\ncontract User {\r\n    enum UserType {\r\n        Freelancer,\r\n        Client,\r\n        Reviewer\r\n    }\r\n\r\n    struct UserProfile {\r\n        UserType userType;\r\n        string username;\r\n        string name;\r\n        string email;\r\n        uint256 rating;\r\n    }\r\n\r\n    address public owner;\r\n    mapping(uint256 => UserProfile) private users;\r\n    mapping(address => mapping(uint256 => uint256)) private addressToUserTypeId;\r\n    mapping(uint256 => address) private userIdToAddress;\r\n    mapping(string => uint256) private usernamesToUserId;\r\n    uint256 private numUsers;\r\n\r\n    constructor() public {\r\n        owner = msg.sender;\r\n    }\r\n\r\n    event NewUserRegistered(uint256 userId, UserType userType);\r\n    event UserProfileUpdated(uint256 userId);\r\n\r\n    modifier onlyOwner() {\r\n        require(msg.sender == owner, \"Caller is not the contract owner\");\r\n        _;\r\n    }\r\n\r\n    function register(\r\n        UserType userType,\r\n        string memory username,\r\n        string memory name,\r\n        string memory email\r\n    ) public returns (uint256) {\r\n        require(usernamesToUserId[username] == 0, \"Username already exists.\");\r\n        require(\r\n            addressToUserTypeId[msg.sender][uint(userType)] == 0,\r\n            \"User of this type already exists for this address.\"\r\n        );\r\n\r\n        // Create the new user profile\r\n        UserProfile memory newUser = UserProfile({\r\n            userType: userType,\r\n            username: username,\r\n            name: name,\r\n            email: email,\r\n            rating: 0\r\n        });\r\n\r\n        uint256 userId = numUsers++;\r\n        users[userId] = newUser;\r\n        addressToUserTypeId[msg.sender][uint(userType)] = userId;\r\n        userIdToAddress[userId] = msg.sender; // populate the reverse mapping\r\n        usernamesToUserId[username] = userId;\r\n\r\n        emit NewUserRegistered(userId, userType);\r\n        return userId;\r\n    }\r\n\r\n    function updateUserDetails(\r\n        uint256 userId,\r\n        string memory name,\r\n        string memory email\r\n    ) public {\r\n        require(\r\n            userIdToAddress[userId] == msg.sender,\r\n            \"Only the user can update their details.\"\r\n        );\r\n        users[userId].name = name;\r\n        users[userId].email = email;\r\n\r\n        emit UserProfileUpdated(userId);\r\n    }\r\n\r\n    function getUserDetails(\r\n        uint256 userId\r\n    )\r\n        public\r\n        view\r\n        returns (\r\n            UserType userType,\r\n            string memory username,\r\n            string memory name,\r\n            string memory email,\r\n            uint256 rating\r\n        )\r\n    {\r\n        require(userId < numUsers, \"Invalid user ID\");\r\n        UserProfile storage user = users[userId];\r\n        return (\r\n            user.userType,\r\n            user.username,\r\n            user.name,\r\n            user.email,\r\n            user.rating\r\n        );\r\n    }\r\n\r\n    function isUser(address userAddress) public view returns (bool) {\r\n        return\r\n            addressToUserTypeId[userAddress][uint(UserType.Freelancer)] != 0 ||\r\n            addressToUserTypeId[userAddress][uint(UserType.Client)] != 0 ||\r\n            addressToUserTypeId[userAddress][uint(UserType.Reviewer)] != 0;\r\n    }\r\n\r\n    function isUserType(\r\n        uint256 userId,\r\n        UserType userType\r\n    ) public view returns (bool) {\r\n        require(userId < numUsers, \"Invalid user ID\");\r\n        return users[userId].userType == userType;\r\n    }\r\n\r\n    function transferOwnership(address newOwner) public onlyOwner {\r\n        require(newOwner != address(0), \"New owner is the zero address\");\r\n        owner = newOwner;\r\n    }\r\n\r\n    function getAddressFromUserId(\r\n        uint256 userId\r\n    ) public view returns (address) {\r\n        require(userId < numUsers, \"Invalid user ID\");\r\n        return userIdToAddress[userId];\r\n    }\r\n\r\n    function isClient(uint256 userId) public view returns (bool) {\r\n        require(userId < numUsers, \"Invalid user ID\");\r\n        return users[userId].userType == UserType.Client;\r\n    }\r\n\r\n    function isFreelancer(uint256 userId) public view returns (bool) {\r\n        require(userId < numUsers, \"Invalid user ID\");\r\n        return users[userId].userType == UserType.Freelancer;\r\n    }\r\n}\r\n",
  "sourcePath": "C:\\Users\\xibo\\IS4302-Freelancing\\contracts\\User.sol",
  "compiler": {
    "name": "solc",
    "version": "0.5.17+commit.d19bba13.Emscripten.clang"
  },
  "schemaVersion": "3.4.16",
  "updatedAt": "2024-11-21T07:21:30.565Z",
  "networkType": "ethereum",
  "devdoc": {
    "methods": {}
  },
  "userdoc": {
    "methods": {}
  }
}