{
  "contractName": "User",
  "abi": [
    {
      "inputs": [],
      "payable": false,
      "stateMutability": "nonpayable",
      "type": "constructor"
    },
    {
      "anonymous": false,
      "inputs": [
        {
          "indexed": false,
          "internalType": "uint256",
          "name": "userId",
          "type": "uint256"
        },
        {
          "indexed": false,
          "internalType": "enum User.UserType",
          "name": "userType",
          "type": "uint8"
        }
      ],
      "name": "NewUserRegistered",
      "type": "event"
    },
    {
      "anonymous": false,
      "inputs": [
        {
          "indexed": false,
          "internalType": "uint256",
          "name": "userId",
          "type": "uint256"
        }
      ],
      "name": "UserProfileUpdated",
      "type": "event"
    },
    {
      "constant": false,
      "inputs": [
        {
          "internalType": "enum User.UserType",
          "name": "userType",
          "type": "uint8"
        },
        {
          "internalType": "string",
          "name": "username",
          "type": "string"
        },
        {
          "internalType": "string",
          "name": "name",
          "type": "string"
        },
        {
          "internalType": "string",
          "name": "email",
          "type": "string"
        }
      ],
      "name": "register",
      "outputs": [],
      "payable": false,
      "stateMutability": "nonpayable",
      "type": "function"
    },
    {
      "constant": false,
      "inputs": [
        {
          "internalType": "uint256",
          "name": "userId",
          "type": "uint256"
        },
        {
          "internalType": "string",
          "name": "name",
          "type": "string"
        },
        {
          "internalType": "string",
          "name": "email",
          "type": "string"
        }
      ],
      "name": "updateUserDetails",
      "outputs": [],
      "payable": false,
      "stateMutability": "nonpayable",
      "type": "function"
    },
    {
      "constant": true,
      "inputs": [
        {
          "internalType": "uint256",
          "name": "userId",
          "type": "uint256"
        }
      ],
      "name": "getUserDetails",
      "outputs": [
        {
          "internalType": "enum User.UserType",
          "name": "userType",
          "type": "uint8"
        },
        {
          "internalType": "string",
          "name": "username",
          "type": "string"
        },
        {
          "internalType": "string",
          "name": "name",
          "type": "string"
        },
        {
          "internalType": "string",
          "name": "email",
          "type": "string"
        },
        {
          "internalType": "uint256",
          "name": "rating",
          "type": "uint256"
        }
      ],
      "payable": false,
      "stateMutability": "view",
      "type": "function"
    },
    {
      "constant": true,
      "inputs": [
        {
          "internalType": "address",
          "name": "userAddress",
          "type": "address"
        }
      ],
      "name": "isUser",
      "outputs": [
        {
          "internalType": "bool",
          "name": "",
          "type": "bool"
        }
      ],
      "payable": false,
      "stateMutability": "view",
      "type": "function"
    },
    {
      "constant": true,
      "inputs": [
        {
          "internalType": "uint256",
          "name": "userId",
          "type": "uint256"
        },
        {
          "internalType": "enum User.UserType",
          "name": "userType",
          "type": "uint8"
        }
      ],
      "name": "isUserType",
      "outputs": [
        {
          "internalType": "bool",
          "name": "",
          "type": "bool"
        }
      ],
      "payable": false,
      "stateMutability": "view",
      "type": "function"
    },
    {
      "constant": false,
      "inputs": [
        {
          "internalType": "address",
          "name": "newOwner",
          "type": "address"
        }
      ],
      "name": "transferOwnership",
      "outputs": [],
      "payable": false,
      "stateMutability": "nonpayable",
      "type": "function"
    },
    {
      "constant": true,
      "inputs": [
        {
          "internalType": "uint256",
          "name": "userId",
          "type": "uint256"
        }
      ],
      "name": "getAddressFromUserId",
      "outputs": [
        {
          "internalType": "address",
          "name": "",
          "type": "address"
        }
      ],
      "payable": false,
      "stateMutability": "view",
      "type": "function"
    },
    {
      "constant": true,
      "inputs": [
        {
          "internalType": "uint256",
          "name": "userId",
          "type": "uint256"
        }
      ],
      "name": "isClient",
      "outputs": [
        {
          "internalType": "bool",
          "name": "",
          "type": "bool"
        }
      ],
      "payable": false,
      "stateMutability": "view",
      "type": "function"
    },
    {
      "constant": true,
      "inputs": [
        {
          "internalType": "uint256",
          "name": "userId",
          "type": "uint256"
        }
      ],
      "name": "isFreelancer",
      "outputs": [
        {
          "internalType": "bool",
          "name": "",
          "type": "bool"
        }
      ],
      "payable": false,
      "stateMutability": "view",
      "type": "function"
    }
  ],
  "bytecode": "0x608060405234801561001057600080fd5b50336000806101000a81548173ffffffffffffffffffffffffffffffffffffffff021916908373ffffffffffffffffffffffffffffffffffffffff16021790555061170f806100606000396000f3fe608060405234801561001057600080fd5b50600436106100935760003560e01c80634209fff1116100665780634209fff1146105f35780636f049e511461064f578063bce613f314610695578063cfc70ae2146106db578063f2fde38b1461072e57610093565b8063049aae90146100985780631c1a9f7b1461010657806330ac3e07146102a1578063410c222b146103fd575b600080fd5b6100c4600480360360208110156100ae57600080fd5b8101908080359060200190929190505050610772565b604051808273ffffffffffffffffffffffffffffffffffffffff1673ffffffffffffffffffffffffffffffffffffffff16815260200191505060405180910390f35b6101326004803603602081101561011c57600080fd5b8101908080359060200190929190505050610826565b6040518086600281111561014257fe5b60ff168152602001806020018060200180602001858152602001848103845288818151815260200191508051906020019080838360005b83811015610194578082015181840152602081019050610179565b50505050905090810190601f1680156101c15780820380516001836020036101000a031916815260200191505b50848103835287818151815260200191508051906020019080838360005b838110156101fa5780820151818401526020810190506101df565b50505050905090810190601f1680156102275780820380516001836020036101000a031916815260200191505b50848103825286818151815260200191508051906020019080838360005b83811015610260578082015181840152602081019050610245565b50505050905090810190601f16801561028d5780820380516001836020036101000a031916815260200191505b509850505050505050505060405180910390f35b6103fb600480360360608110156102b757600080fd5b8101908080359060200190929190803590602001906401000000008111156102de57600080fd5b8201836020820111156102f057600080fd5b8035906020019184600183028401116401000000008311171561031257600080fd5b91908080601f016020809104026020016040519081016040528093929190818152602001838380828437600081840152601f19601f8201169050808301925050505050505091929192908035906020019064010000000081111561037557600080fd5b82018360208201111561038757600080fd5b803590602001918460018302840111640100000000831117156103a957600080fd5b91908080601f016020809104026020016040519081016040528093929190818152602001838380828437600081840152601f19601f820116905080830192505050505050509192919290505050610ac8565b005b6105f16004803603608081101561041357600080fd5b81019080803560ff1690602001909291908035906020019064010000000081111561043d57600080fd5b82018360208201111561044f57600080fd5b8035906020019184600183028401116401000000008311171561047157600080fd5b91908080601f016020809104026020016040519081016040528093929190818152602001838380828437600081840152601f19601f820116905080830192505050505050509192919290803590602001906401000000008111156104d457600080fd5b8201836020820111156104e657600080fd5b8035906020019184600183028401116401000000008311171561050857600080fd5b91908080601f016020809104026020016040519081016040528093929190818152602001838380828437600081840152601f19601f8201169050808301925050505050505091929192908035906020019064010000000081111561056b57600080fd5b82018360208201111561057d57600080fd5b8035906020019184600183028401116401000000008311171561059f57600080fd5b91908080601f016020809104026020016040519081016040528093929190818152602001838380828437600081840152601f19601f820116905080830192505050505050509192919290505050610c11565b005b6106356004803603602081101561060957600080fd5b81019080803573ffffffffffffffffffffffffffffffffffffffff16906020019092919050505061100c565b604051808215151515815260200191505060405180910390f35b61067b6004803603602081101561066557600080fd5b8101908080359060200190929190505050611143565b604051808215151515815260200191505060405180910390f35b6106c1600480360360208110156106ab57600080fd5b8101908080359060200190929190505050611200565b604051808215151515815260200191505060405180910390f35b610714600480360360408110156106f157600080fd5b8101908080359060200190929190803560ff1690602001909291905050506112bd565b604051808215151515815260200191505060405180910390f35b6107706004803603602081101561074457600080fd5b81019080803573ffffffffffffffffffffffffffffffffffffffff16906020019092919050505061137a565b005b600060055482106107eb576040517f08c379a000000000000000000000000000000000000000000000000000000000815260040180806020018281038252600f8152602001807f496e76616c69642075736572204944000000000000000000000000000000000081525060200191505060405180910390fd5b6003600083815260200190815260200160002060009054906101000a900473ffffffffffffffffffffffffffffffffffffffff169050919050565b60006060806060600060055486106108a6576040517f08c379a000000000000000000000000000000000000000000000000000000000815260040180806020018281038252600f8152602001807f496e76616c69642075736572204944000000000000000000000000000000000081525060200191505060405180910390fd5b60006001600088815260200190815260200160002090508060000160009054906101000a900460ff168160010182600201836003018460040154838054600181600116156101000203166002900480601f0160208091040260200160405190810160405280929190818152602001828054600181600116156101000203166002900480156109755780601f1061094a57610100808354040283529160200191610975565b820191906000526020600020905b81548152906001019060200180831161095857829003601f168201915b50505050509350828054600181600116156101000203166002900480601f016020809104026020016040519081016040528092919081815260200182805460018160011615610100020316600290048015610a115780601f106109e657610100808354040283529160200191610a11565b820191906000526020600020905b8154815290600101906020018083116109f457829003601f168201915b50505050509250818054600181600116156101000203166002900480601f016020809104026020016040519081016040528092919081815260200182805460018160011615610100020316600290048015610aad5780601f10610a8257610100808354040283529160200191610aad565b820191906000526020600020905b815481529060010190602001808311610a9057829003601f168201915b50505050509150955095509550955095505091939590929450565b3373ffffffffffffffffffffffffffffffffffffffff166003600085815260200190815260200160002060009054906101000a900473ffffffffffffffffffffffffffffffffffffffff1673ffffffffffffffffffffffffffffffffffffffff1614610b7f576040517f08c379a00000000000000000000000000000000000000000000000000000000081526004018080602001828103825260278152602001806116826027913960400191505060405180910390fd5b81600160008581526020019081526020016000206002019080519060200190610ba9929190611522565b5080600160008581526020019081526020016000206003019080519060200190610bd4929190611522565b507fa369c04156aa17624ed5cb471808855217c6d533593066020104a89b40792138836040518082815260200191505060405180910390a1505050565b60006004846040518082805190602001908083835b60208310610c495780518252602082019150602081019050602083039250610c26565b6001836020036101000a03801982511681845116808217855250505050505090500191505090815260200160405180910390205414610cf0576040517f08c379a00000000000000000000000000000000000000000000000000000000081526004018080602001828103825260188152602001807f557365726e616d6520616c7265616479206578697374732e000000000000000081525060200191505060405180910390fd5b6000600260003373ffffffffffffffffffffffffffffffffffffffff1673ffffffffffffffffffffffffffffffffffffffff1681526020019081526020016000206000866002811115610d3f57fe5b81526020019081526020016000205414610da4576040517f08c379a00000000000000000000000000000000000000000000000000000000081526004018080602001828103825260328152602001806116a96032913960400191505060405180910390fd5b610dac6115a2565b6040518060a00160405280866002811115610dc357fe5b815260200185815260200184815260200183815260200160008152509050600060056000815480929190600101919050559050816001600083815260200190815260200160002060008201518160000160006101000a81548160ff02191690836002811115610e2e57fe5b02179055506020820151816001019080519060200190610e4f9291906115dc565b506040820151816002019080519060200190610e6c9291906115dc565b506060820151816003019080519060200190610e899291906115dc565b506080820151816004015590505080600260003373ffffffffffffffffffffffffffffffffffffffff1673ffffffffffffffffffffffffffffffffffffffff1681526020019081526020016000206000886002811115610ee557fe5b815260200190815260200160002081905550336003600083815260200190815260200160002060006101000a81548173ffffffffffffffffffffffffffffffffffffffff021916908373ffffffffffffffffffffffffffffffffffffffff160217905550806004866040518082805190602001908083835b60208310610f805780518252602082019150602081019050602083039250610f5d565b6001836020036101000a0380198251168184511680821785525050505050509050019150509081526020016040518091039020819055507fd4299da132a77e72466b197b434c4e01655cb5a084d79521bf0664a9e3a79e20818760405180838152602001826002811115610ff057fe5b60ff1681526020019250505060405180910390a1505050505050565b600080600260008473ffffffffffffffffffffffffffffffffffffffff1673ffffffffffffffffffffffffffffffffffffffff168152602001908152602001600020600080600281111561105c57fe5b8152602001908152602001600020541415806110d557506000600260008473ffffffffffffffffffffffffffffffffffffffff1673ffffffffffffffffffffffffffffffffffffffff1681526020019081526020016000206000600160028111156110c357fe5b81526020019081526020016000205414155b8061113c57506000600260008473ffffffffffffffffffffffffffffffffffffffff1673ffffffffffffffffffffffffffffffffffffffff168152602001908152602001600020600060028081111561112a57fe5b81526020019081526020016000205414155b9050919050565b600060055482106111bc576040517f08c379a000000000000000000000000000000000000000000000000000000000815260040180806020018281038252600f8152602001807f496e76616c69642075736572204944000000000000000000000000000000000081525060200191505060405180910390fd5b600060028111156111c957fe5b6001600084815260200190815260200160002060000160009054906101000a900460ff1660028111156111f857fe5b149050919050565b60006005548210611279576040517f08c379a000000000000000000000000000000000000000000000000000000000815260040180806020018281038252600f8152602001807f496e76616c69642075736572204944000000000000000000000000000000000081525060200191505060405180910390fd5b6001600281111561128657fe5b6001600084815260200190815260200160002060000160009054906101000a900460ff1660028111156112b557fe5b149050919050565b60006005548310611336576040517f08c379a000000000000000000000000000000000000000000000000000000000815260040180806020018281038252600f8152602001807f496e76616c69642075736572204944000000000000000000000000000000000081525060200191505060405180910390fd5b81600281111561134257fe5b6001600085815260200190815260200160002060000160009054906101000a900460ff16600281111561137157fe5b14905092915050565b6000809054906101000a900473ffffffffffffffffffffffffffffffffffffffff1673ffffffffffffffffffffffffffffffffffffffff163373ffffffffffffffffffffffffffffffffffffffff161461143c576040517f08c379a00000000000000000000000000000000000000000000000000000000081526004018080602001828103825260208152602001807f43616c6c6572206973206e6f742074686520636f6e7472616374206f776e657281525060200191505060405180910390fd5b600073ffffffffffffffffffffffffffffffffffffffff168173ffffffffffffffffffffffffffffffffffffffff1614156114df576040517f08c379a000000000000000000000000000000000000000000000000000000000815260040180806020018281038252601d8152602001807f4e6577206f776e657220697320746865207a65726f206164647265737300000081525060200191505060405180910390fd5b806000806101000a81548173ffffffffffffffffffffffffffffffffffffffff021916908373ffffffffffffffffffffffffffffffffffffffff16021790555050565b828054600181600116156101000203166002900490600052602060002090601f016020900481019282601f1061156357805160ff1916838001178555611591565b82800160010185558215611591579182015b82811115611590578251825591602001919060010190611575565b5b50905061159e919061165c565b5090565b6040518060a00160405280600060028111156115ba57fe5b8152602001606081526020016060815260200160608152602001600081525090565b828054600181600116156101000203166002900490600052602060002090601f016020900481019282601f1061161d57805160ff191683800117855561164b565b8280016001018555821561164b579182015b8281111561164a57825182559160200191906001019061162f565b5b509050611658919061165c565b5090565b61167e91905b8082111561167a576000816000905550600101611662565b5090565b9056fe4f6e6c792074686520757365722063616e207570646174652074686569722064657461696c732e55736572206f662074686973207479706520616c72656164792065786973747320666f72207468697320616464726573732ea265627a7a723158206e673529a39ea8334f7c5579db3f7511e25ebfc516d6f6c98ab06026c9840c5a64736f6c63430005110032",
  "source": "pragma solidity ^0.5.0;\n\ncontract User {\n    enum UserType {\n        Freelancer,\n        Client,\n        Reviewer\n    }\n\n    struct UserProfile {\n        UserType userType;\n        string username;\n        string name;\n        string email;\n        uint256 rating;\n    }\n\n    address private owner;\n    mapping(uint256 => UserProfile) private users;\n    mapping(address => mapping(uint256 => uint256)) private addressToUserTypeId;\n    mapping(uint256 => address) private userIdToAddress;\n    mapping(string => uint256) private usernamesToUserId;\n    uint256 private numUsers;\n\n    constructor() public {\n        owner = msg.sender;\n    }\n\n    event NewUserRegistered(uint256 userId, UserType userType);\n    event UserProfileUpdated(uint256 userId);\n\n    modifier onlyOwner() {\n        require(msg.sender == owner, \"Caller is not the contract owner\");\n        _;\n    }\n\n    function register(\n        UserType userType,\n        string memory username,\n        string memory name,\n        string memory email\n    ) public {\n        require(usernamesToUserId[username] == 0, \"Username already exists.\");\n        require(\n            addressToUserTypeId[msg.sender][uint(userType)] == 0,\n            \"User of this type already exists for this address.\"\n        );\n\n        // Create the new user profile\n        UserProfile memory newUser = UserProfile({\n            userType: userType,\n            username: username,\n            name: name,\n            email: email,\n            rating: 0\n        });\n\n        uint256 userId = numUsers++;\n        users[userId] = newUser;\n        addressToUserTypeId[msg.sender][uint(userType)] = userId;\n        userIdToAddress[userId] = msg.sender; // populate the reverse mapping\n        usernamesToUserId[username] = userId;\n\n        emit NewUserRegistered(userId, userType);\n    }\n\n    function updateUserDetails(\n        uint256 userId,\n        string memory name,\n        string memory email\n    ) public {\n        require(\n            userIdToAddress[userId] == msg.sender,\n            \"Only the user can update their details.\"\n        );\n        users[userId].name = name;\n        users[userId].email = email;\n\n        emit UserProfileUpdated(userId);\n    }\n\n    function getUserDetails(\n        uint256 userId\n    )\n        public\n        view\n        returns (\n            UserType userType,\n            string memory username,\n            string memory name,\n            string memory email,\n            uint256 rating\n        )\n    {\n        require(userId < numUsers, \"Invalid user ID\");\n        UserProfile storage user = users[userId];\n        return (\n            user.userType,\n            user.username,\n            user.name,\n            user.email,\n            user.rating\n        );\n    }\n\n    function isUser(address userAddress) public view returns (bool) {\n        return\n            addressToUserTypeId[userAddress][uint(UserType.Freelancer)] != 0 ||\n            addressToUserTypeId[userAddress][uint(UserType.Client)] != 0 ||\n            addressToUserTypeId[userAddress][uint(UserType.Reviewer)] != 0;\n    }\n\n    function isUserType(\n        uint256 userId,\n        UserType userType\n    ) public view returns (bool) {\n        require(userId < numUsers, \"Invalid user ID\");\n        return users[userId].userType == userType;\n    }\n\n    function transferOwnership(address newOwner) public onlyOwner {\n        require(newOwner != address(0), \"New owner is the zero address\");\n        owner = newOwner;\n    }\n\n    function getAddressFromUserId(\n        uint256 userId\n    ) public view returns (address) {\n        require(userId < numUsers, \"Invalid user ID\");\n        return userIdToAddress[userId];\n    }\n\n    function isClient(uint256 userId) public view returns (bool) {\n        require(userId < numUsers, \"Invalid user ID\");\n        return users[userId].userType == UserType.Client;\n    }\n\n    function isFreelancer(uint256 userId) public view returns (bool) {\n        require(userId < numUsers, \"Invalid user ID\");\n        return users[userId].userType == UserType.Freelancer;\n    }\n}\n",
  "sourcePath": "/Users/kordelia/nus/Y3S1/IS4302/IS4302-Freelancing/contracts/User.sol",
  "compiler": {
    "name": "solc",
    "version": "0.5.17+commit.d19bba13.Emscripten.clang"
  },
  "schemaVersion": "3.4.16",
  "updatedAt": "2024-11-15T02:41:08.304Z",
  "networkType": "ethereum",
  "devdoc": {
    "methods": {}
  },
  "userdoc": {
    "methods": {}
  }
}